:040000006F109029C4
:100004000000000000000000900000208A0400208E
:10001400A9BDF9F5900000200000000000000000D8
:10002400900000209000002000000000000000006C
:10003400900000200000000090000020000000005C
:1000440090000020900000209000002090000020EC
:1000540090000020900000209000002090000020DC
:1000640090000020900000209000002090000020CC
:100074007E050020900000209000002090000020C9
:1000840090000020900000209000002090000020AC
:1000940001A073270080218B9387818309CB732769
:1000A400008023ACE18298435D9B731007800100BC
:1000B400010037170040930670052300D704930608
:1000C40080FA2300D704010001008346B70493F6A5
:1000D400F60DA305D7042300070473260080944378
:1000E400A18AD18E7390068023AC018201000100A5
:1000F40093760502638406180347A700118B25E74E
:1001040073270080218B09CB7327008023ACE18205
:1001140098435D9B7310078001000100371700406E
:10012400930670052300D704930680FA2300D704AE
:10013400010001008346A70093E646002305D7008B
:1001440023000704F32600809843218B558F7310F6
:10015400078023AC0182010001001307004B01005A
:1001640001007D176DFF73270080218B09CB732756
:10017400008023ACE18298435D9B731007800100EB
:10018400010037170040930670052300D704930637
:1001940080FA2300D704010001007D892314A700FD
:1001A400010001000100010023000704F326008080
:1001B4009843218B558F7310078023AC0182010073
:1001C400010073270080218B09CB7327008023ACA7
:1001D400E18298435D9B731007800100010037178B
:1001E4000040930670052300D704930680FA230089
:1001F400D7040100010001000100B72600401306E6
:100204001005A383C68023000704F32600809843C7
:10021400218B558F7310078023AC018201000100EC
:1002240073270080218B09CB7327008023ACE182E4
:1002340098435D9B7310078001000100371700404D
:10024400930670052300D704930680FA2300D7048D
:10025400010001008346B70493E60608A305D7040A
:1002640023000704732700809C43A18BD98F7390CC
:10027400078023AC0182010001008280937605048B
:10028400638B06140347A700418B25E7732700807F
:10029400218B09CB7327008023ACE18298435D9BBB
:1002A40073100780010001003717004093067005A2
:1002B4002300D704930680FA2300D7040100010029
:1002C4008346A70093E606012305D700230007040D
:1002D400F32600809843218B558F7310078023AC3D
:1002E4000182010001001307007D010001007D1758
:1002F4006DFF73270080218B09CB7327008023AC0B
:10030400E18298435D9B7310078001000100371759
:100314000040930670052300D704930680FA230057
:10032400D704010001009376F50193E60604231433
:10033400D700010001000100010023000704F32697
:1003440000809843218B558F7310078023AC018262
:1003540001000100130760046310E50473270080A3
:10036400218B09CB7327008023ACE18298435D9BEA
:1003740073100780010001003717004093067005D1
:100384002300D704930680FA2300D7040100010058
:10039400B72600400946B5B573270080218B09CBE9
:1003A4007327008023ACE18298435D9B7310078020
:1003B4000100010037170040930670052300D7049D
:1003C400930680FA2300D70401000100B7260040F9
:1003D400130620053DB573270080218B09CB7327B5
:1003E400008023ACE18298435D9B73100780010079
:1003F400010037170040930670052300D7049306C5
:1004040080FA2300D704010001008356870093E695
:10041400060C2314D700C5BB411181460146814512
:10042400114506C6152CF3270080A18B9386818382
:1004340089CBF327008023ACF1829C42DD9B73902F
:10044400078001000100B7170040130770052380DF
:10045400E704130780FA2380E7040100010003C7BF
:100464006704136717002383E704238007047327B3
:1004740000809C42A18BD98F7390078023AC0182AA
:1004840001000100B240410182808146014681455C
:100494001145D922F3270080A18B1387818389CB4F
:1004A400F327008023ACF1821C43DD9B739007800B
:1004B40001000100B7170040930670052380D7049C
:1004C400930680FA2380D70401000100FD56239689
:1004D400D70223800704F32600801C43A18BD58F09
:1004E4007390078023AC018201000100F327008090
:1004F400A18B89CBF327008023ACF1821C43DD9BC5
:100504007390078001000100B7170040930670053F
:100514002380D704930680FA2380D70401000100C6
:1005240083C6670493E616002383D7042380070455
:10053400F32600801C43A18BD58F7390078023ACD6
:1005440001820100010001A0BD473305F50201004D
:100554007D1575FD8280411122C426C206C6AA8477
:10056400014463179400B2402244924441018280C2
:1005740005041305803E4204C13F4180DDB7B7172F
:100584000040130700032388E702854723A0F18472
:1005940073002030411106C6AD25FDBF230304803E
:1005A40015472303E48001002302A480828083078B
:1005B4006480E3CE07FE2303048082808307648083
:1005C400E3CE07FE03454480828083076480E3CE44
:1005D40007FE2302A4808280411126C44AC24EC071
:1005E40006C61377F50BAD47AA892E899544630691
:1005F400F70019456537653F8D444E854537FD59EC
:10060400FD1463983401B240A24412498249410165
:100614008280135509011375F50F453F2209CDB7A3
:10062400011126CC06CEB704080051371545BD3755
:10063400713769372AC6A53F32459377150089EB90
:10064400136515001375F50FF240E24405618280CD
:10065400FD14E9FC0145CDBF397126DC4ADA4ED8D8
:1006640052D656D45AD25ED006DE62CE66CCB7E7F6
:1006740000E07D5783AA070022C603AA470023A0EF
:10068400E71823A2E718B717004013077005238063
:10069400E704130780FA2380E70483C74704930B16
:1006A40075FFB684E20793FBFB0F8546AA892E8B60
:1006B400328937240040E187015763FA76016308E1
:1006C400D5008946130700026313D5000157D98F5B
:1006D40093F7F70FB71C00402382FC041147230350
:1006E400E4801305F00F5D3D094CD135636D7C1139
:1006F400B7050700DA9537870700795563F2E504F3
:10070400B3879500636EF702370B0800A94733EBF4
:1007140065016399F90689E48144513D26850DA05C
:10072400DA850945553D05090345F9FFFD14050B17
:10073400693D81C49377FB0FFDF7DD3569FD7D5578
:10074400B7170040130770052380E704130780FAE6
:100754002380E70403C74704418B2382E704F25054
:10076400B7E700E023A0571123A24711E254324413
:100774005259C259325AA25A125B825B724CE24CF1
:1007840021618280A5476395F90685691309F00FF5
:10079400B3069900B3742B01B6941349F9FFB374EB
:1007A4009900856B33796901416B9387F9FFB3F73E
:1007B400270199E363FC340193D94900C147E3E677
:1007C40037FF99BF0569C1697D19D9B71305800D34
:1007D4006388690113050002638479011305100815
:1007E400CA85DD3B353D21DD4E99B3843441D9B70B
:1007F400DA852D45D533CA94E30099F205097D3B8A
:10080400A30FA9FED5BF9387F9FF93F7F70F636191
:10081400FC0C83C71C0413073008631FF704370755
:100824000800636BEB04B3079B00B706100063F585
:10083400D704334BEB0089476393F9068980D54984
:10084400E38C04ECDA850945413B11090327C9FF10
:1008540091472320E48003076480E34E07FE2303CB
:100864003481FD17EDFBFD14110B81C49377FB0F4D
:10087400E9FF7D3371F5E1B5B717004003C75704AD
:10088400B70708001377070219E3B78707007955FC
:10089400E378FBEA33079B00E3FFE7F855B58547A8
:1008A400E382F9F2DA852D45053B9389F4FFE3856C
:1008B40004E6293393F7390091EB83260480032758
:1008C400090093074900E39AE6E43E89CE84F1BF28
:1008D400B5476396F9001305900BC93135BDB1478F
:1008E4001305B00AE38BF9FE99476391F904B70540
:1008F4000800B365BB002D45C53181448D4BA1492A
:10090400753963967401832704802320F9008504D4
:10091400E39834FF8327048013172B0163550700E2
:100924002312F900D5BB2322F900FDB39D47639937
:10093400F90281451305B0044531BD442320090063
:1009440023220900FD599D3993F77400CA9703C700
:100954000700FD14398D2380A700E39634FF6DBB97
:10096400A1476392F9046D398144630D0B008D47EF
:100974009304C0036308FB009304000563048B0124
:10098400930440041375C507E30895D81945393114
:1009940039390545213126850D3909453D3149311E
:1009A400E31C05D669BB91476399F90013056006FA
:1009B400F536F53E130590090DB7E38F09D4F154CC
:1009C400A9BB19CD91CD09CE81473387F500834664
:1009D40007003307F50085072300D700E317F6FE69
:1009E400828019C991C909CA910583A7C5FF110558
:1009F4007D16232EF5FEC5BF828001C919C62A962D
:100A04000505A30FB5FEE31DA6FE828081473307CB
:100A1400F5000307070019E33E8582808507C5BFFB
:100A240001112E8626CAAA84131506019305F00423
:100A3400418122CC06CE32C6EF00B0562A8401C5CD
:100A44003246A685BD3F2285F2406244D244056108
:100A54008280854715C18DC105C28147B306F50063
:100A64003387F50083C60600034707006398E60052
:100A74008507E315F6FE85473E8582808147EDBFF5
:100A84009307F6FFBE952A966313C5008280FD1571
:100A940083C715000505A30FF5FEFDB7AA87014519
:100AA40081CF09CE3E96850703C7F7FF6317B700CA
:100AB400E39BC7FE0545828082800145828079716F
:100AC40097370000938747B022D4804306D626D2B6
:100AD4004AD04ECE52CC56CA5AC85EC679C0B7C4A4
:100AE400C901014B97390000938989AD9384F43788
:100AF400173A0000130A8AAD973A0000938A8AA72E
:100B0400173900001309C9B08357240095E35C44E6
:100B1400631D0B00173700002328F7AA832BC4009A
:100B24002285EF0030555E84B9A82326FB00FDB76B
:100B340083A7090082971C443307F5406376F500C8
:100B4400032749001D8F2A9763E2E40897370000C2
:100B540023AA07A28355240003450400972000E03C
:100B6400E78080595C405844A1CB0C4403264900DB
:100B7400AE97BE8663E4B70063E4C700B386C7409C
:100B840014C4228B3A8449F0973700009387879ED8
:100B94009C4B09476372F706F917173700002323A4
:100BA400F79EB250225492540259F249624AD24AF0
:100BB400424BB24B4561828063170B0097370000AC
:100BC40023A4E7A0A1BF2326EB0089BF03274A0281
:100BD40009CF63EFA7003385A74083A70A01637693
:100BE400F5009737000023AFA798228B404461BFDC
:100BF40003274900BA97C5B79737000023A407987D
:100C04004DB7411122C417340000130464991C40E9
:100C140006C626C24AC091C782979737000023A10F
:100C240007989737000083C7B7B7858B97340000C0
:100C34009384C4B695C397370000A38307B683C7CC
:100C440074001547637AF700A12B83C77400F51766
:100C54008A07A2979C4382971C4491C382971739B1
:100C640000001309299603270900173600000346DC
:100C740076909737000083C7E78F93961700BA964C
:100C840083D60600D5CE9737000083C7A78E63E3CB
:100C9400C70C97370000238F078C1C40639D0712F5
:100CA4009737000083C717B091CF83C7740093F7B9
:100CB400F70F89EB97370000A38607AE970001E092
:100CC400E7800084973700009387878F9C43638471
:100CD4000710973700009387A793DC43173700006A
:100CE4002322F78AE93B973700009387278EDC534A
:100CF400FDC3173700001307E787184B9737000029
:100D040083C7178E6369F70C83C774001547636440
:100D1400F70C9737000083C727AD918BCDEF0326DF
:100D240009009736000083C6F68463CCD70A2244B0
:100D3400B240924402494101173300E067006380E6
:100D4400850793F7F70F973600002385F682E3E2D1
:100D5400C7F215BF86073E97835507002310070087
:100D640097370000239C07849737000093870783F5
:100D74009C43172500000345E57F13172500BA9708
:100D84009C4382979737000083D747831727000037
:100D94000347477E93C7F7FF7D8D931717000327FB
:100DA40009003E97835707005D8D2310A7009727FE
:100DB400000083C7277C91C7850717270000230BF2
:100DC400F77A172700000347E77A9727000083C7BD
:100DD400777AE370F7ECB24022449244024941012D
:100DE4008280139717003297035707006DF7850722
:100DF4002DBFAD6737C70040BD072326F7200F106E
:100E04000000972700009387E776C84F832787263B
:100E1400BD66BD0693C7F7FF99836A052326D720CD
:100E24005D8D82804111B7170040985F3AC6945F88
:100E34003247E39CE6FE3245410182801305F00F00
:100E44008280011197370000938747A522CC03A421
:100E5400070C26CA06CE2AC42EC6854419E40145C9
:100E6400F2406244D2440561828083479100034783
:100E74001400858B6304F7000044CDB7194693052D
:100E8400A10013052400F136E31895FE0545C9BFFA
:100E9400173700001307878F1C439306001094C371
:100EA40001000100010001001C4323A00700834648
:100EB400150003482500A2064208C296034805000F
:100EC400C296034835006208C29694D783465500FB
:100ED40003486500A2064208C29603484500C2962C
:100EE400034875006208C296D4D783469500034828
:100EF400A500A2064208C29603488500C29603488C
:100F0400B5006208C29694DB8346D5000348E50029
:100F1400A2064208C2960348C5000345F500C296DE
:100F24006205AA96D4DB83C6150003C52500A20674
:100F34004205AA9603C50500AA9603C535006205B5
:100F4400AA9694CF83C6550003C56500A206420540
:100F5400AA9603C54500AA9603C575006205AA961C
:100F6400D4CF83C6950003C5A500A2064205AA9660
:100F740003C58500AA9603C5B5006205AA9694D355
:100F840083C6D50003C5E500A2064205AA9603C59B
:100F9400C50083C5F500AA96E205AE96D4D3D44322
:100FA400F59AD4C3D44393E61600D4C3944393E68A
:100FB400160094C3BA879443D842058B59E3984EDC
:100FC40001452300E6009843184F2183A300E6005F
:100FD4009843184F41832301E6009843184F6183D7
:100FE400A301E6009C43D84F2302E600D84F218397
:100FF400A302E600D84F41832303E600D84F618360
:10100400A303E60098532304E60098532183A30422
:10101400E600985341832305E60098536183A305B2
:10102400E600D8532306E600D8532183A306E6003E
:10103400D85341832307E600DC53E183A307F6007A
:10104400828001008DBF17270000130767741443C3
:10105400411122C49C5E4AC006C6998326C2858B70
:101064003A841729000013096972D1CB9C5E972436
:1010740000009384A47293F7F7F99CDE172700000D
:101084000347277293070008631BF70083270900AF
:101094009C4393F70704172700002304F77083C7C2
:1010A400040093F707049DC39727000093874751D3
:1010B4009C4382979727000023AAA76E83C7040046
:1010C40093F7F70B17270000230AF76C83C7440034
:1010D40093F707048DE7854717270000A302F76CF1
:1010E400972700009387476D9C43096798C71307A8
:1010F40000FC972600002385E66AD844F8D31C40F8
:10110400985F1183058B09CB985F3D9B98DF05475A
:10111400972600002386E668985F1D83058B11CB14
:10112400985F1377F7F798DF85471727000023099F
:10113400F76683270900D8430583058B19C7D8436D
:10114400759BD8C3D843799BD8C3B24022449244F8
:10115400024941018280397106DE16DC1ADA1ED892
:101164002AD62ED432D236D03ACE3ECC42CA46C843
:1011740072C676C47AC27EC0F935F250E252525336
:10118400C2533255A255125682567247E24752480C
:10119400C248324EA24E124F824F2161730020305A
:1011A400972700009387476194439727000093870C
:1011B400E75E03C70700058B11CB97270000238147
:1011C400075E97270000A38D075C828003C7170082
:1011D400058B65F7F85271FF83C75700DDB71728F1
:1011E40000001308E85A032708001C5F9583858BC9
:1011F400D1E709C61C5BBD832300F60085CA83279B
:101204000800985B4607935767016356070093E706
:1012140007C0C207C18303970600C207C18709C775
:10122400BA970947B3C7E7022390F60085CD8347F1
:1012340015008DCB9726000083C6A65693F60604A8
:101244001387970089478DCA3A9503470500854659
:1012540099471376F7066311D60262076187B94787
:10126400634C0700832708009C5FED838D8B172751
:101274000000A30AF75281473E8582808547EDBF6F
:10128400411122C406C6172400001304E452184076
:101294003DE9AE877453FDFE3E85B2859727000075
:1012A400238F074E97F000E0E78000F997270000AE
:1012B4009387074E9C43B70680009843558F98C385
:1012C400D857719BD8D797270000A38B074C972733
:1012D4000000A385074C1C40094798C314401727F6
:1012E40000001307A74B83472700858B89EB8347AF
:1012F4003700858BD9C7972700002383074AB2405C
:101304002244410182808D476310F5029727000033
:10131400938707489C43B70680009843558F98C32A
:10132400D857719BD8D75DBF8547E319F5FA544761
:10133400F977FD17F58F5CC70F1000001C40096793
:1013440098C7130700F817260000230BE644172755
:1013540000001307E7431043184231830D8B11E754
:1013640013076019F8D3D4C795BF184209463183CF
:101374000D8B6315C7001307E043EDB71307E01B9C
:10138400D5B7FC52ADF3A5BF5D71A2C4A6C22A8431
:10139400130680022800AE849305100886C6CAC0CE
:1013A4004EDE52DCEFF06FE5354597F000E0E78064
:1013B400C027172300001303A33D8327030093765C
:1013C400F41F172E0000130E6E4423A40700984B3D
:1013D400972E0000938E4E3E370FFCFF1367F703E2
:1013E40098CBF84F130510F8B7020400137707E001
:1013F400558FF8CF9843F576FD16758F98C39843AB
:10140400B7063300930380251377F7E798C398430F
:1014140011497D1F1377F7E71367071098C3032754
:101424000E008549930F80021C47D58F1CC783A7E4
:101434000E001307900D3400B8CB014793553700C5
:10144400A69583C7050013767700B3D7C740858B6D
:10145400E1C38327030083280E00239C0704239001
:10146400070603A8C8021378D8FF23A6080383A895
:1014740007001378F70793F808F833E8080123A066
:10148400070103A847023368580023A2070383A86F
:101494000E00014823A2780603DA0706630748030F
:1014A40003A80703038A06001358F80062081358B8
:1014B400884163580A0103A807031358F8002380DE
:1014C400060103D807061378F80F03AA4806630633
:1014D4000A0003DA8705E37F49FB03A84702337850
:1014E400E80123A2070383870600635CF40003C8B2
:1014F40005003396C9001346F6FF337606012380B0
:10150400C5003E8663D3A7002A861315860161852C
:1015140005071377F70F8506E312F7F3B640264461
:1015240096440649F259625A616182809726000006
:10153400938686289C42D8471316170163550602E2
:10154400984713161701635006027D57B8D717271B
:10155400000013072702584F050717260000232908
:10156400E602116798C798470D83058B1DC317279B
:1015740000000347C7221367170017260000230043
:10158400E622130700F817260000230BE620214764
:1015940098C79847058B09CF1727000003471720E2
:1015A4001367170017260000A30AE61E054798C70D
:1015B40098470983058B09E798470583058B31CF45
:1015C4009847172600001306661D1725000013050B
:1015D400251C0983058B63030710184118433183C5
:1015E4000D8B75EBAC4B184E93F5050203471700B2
:1015F400CDCD79EF13077006D8CF034706001367E4
:10160400170017260000230BE618114798C7184146
:101614005C57F19B93E717005CD79C42984793165D
:10162400370163D606029726000083C6A62EC18A18
:101634001727000013078726C5CE034787071367BC
:101644000702972600002387E62C056798C798476A
:101654009316270163D10602172700000347471496
:1016640062076187635707000547972600002389AF
:10167400E612096798C798479316070163D60602CE
:101684009726000083C61629858A172700001307AA
:10169400E720ADCE0347970713672700972600007E
:1016A400A38AE626216798C7828029D785456315D2
:1016B400B7001307B00689B789456315B700130748
:1016C400F0061DBF8D456315B700130730072DB70E
:1016D4001307500715B71307600739BF03473600D0
:1016E4001367170017260000A30BE60A094739BF42
:1016F400834687070946BD8A6388C6000347870770
:101704008D463D8BE313D7F4114725BF83469707D6
:10171400918AC9DA034797071367870041B739717C
:1017240006DE16DC1ADA1ED82AD62ED432D236D0E9
:101734003ACE3ECC42CA46C872C676C47AC27EC08D
:10174400F533F250E2525253C2533255A255125657
:1017540082567247E2475248C248324EA24E124F56
:10176400824F216173002030972700009387C704BC
:1017740098438567938707777CD3972700009387DF
:10178400E7089C4383A6070913965600635806008E
:1017940083A6070913966600634406007453FDF29A
:1017A400828071C5AA870145E9C58D07C207C18337
:1017B400F19BC207C18313074003636FF702172726
:1017C40000001307670D0843172700001307470C91
:1017D40014436398A60217270000130727DF185B3A
:1017E400014541CB4111C20706C60545DD8D02976F
:1017F400B240014541018280172700001307870981
:10180400D9B70357650035E303574500636FF70401
:10181400B306F7402146637CD6020328050093866D
:1018240087001D8FAA966117172600000356E6D479
:101834002392E60023A006012393060014C1231279
:10184400F500130786FF972600002398E6D223139A
:10185400B5009725000083D545D2B387F5401727F7
:101864000000231CF7D02105828008419DB7014563
:10187400828082800DC1972700009387E70103A32C
:101884000700972700009387A70083A807008146D5
:101894009A8763E31701828003A80700636DF50A42
:1018A400636BA80A13878700E367E5FE03D6670026
:1018B400216705076317E60003C7C18B0507238E5D
:1018C400E18A972500009385E5CA03D6470003D72C
:1018D40065002393070032974207418317250000D0
:1018E400231DE5C8638A670217250000130585FADE
:1018F40008416303F50203D5660019ED83D746005A
:1019040023A0060121073E9621062392C6009727AD
:1019140000002394E7C6B6879843E30E17F797268B
:101924000000938626F79442E307D7F683566700B0
:10193400BDF283D64700035647001843A106B2966A
:101944002392D70098C383D76500A1071727000007
:101954002315F7C28280BE86C28725BF797122D43F
:1019640006D683C735002E8423160100A307F10091
:1019740083C74500100802C02307F10083C7550040
:101984008A8502C2A306F10002C402C802CA02CCBC
:1019940002CEEFF0EFCF0347F10183470400014586
:1019A4006310F7020347E1018347140001456319FB
:1019B400F7000345D101834724001D8D133515001D
:1019C400B250225445618280011197270000938709
:1019D400E7EC22CC03A4870C26CA4AC84EC606CE1E
:1019E400AA8413092500854915C083C71400034739
:1019F4003400858B6304F700405CFDB719469305FA
:101A040044004A85EFF0EF84E31835FF2285F24065
:101A14006244D2444249B249056182804111972708
:101A240000009387A7E722C403A4870C26C24AC0F8
:101A340006C693042500054901E82285B2402244E4
:101A44009244024941018280A6851305A4023937D4
:101A5400E30525FF405CCDB741119727000093872C
:101A6400E7E322C403A4870C26C24AC006C6930433
:101A74002500054901E82285B240224492440249E6
:101A840041018280A6851305A401C93DE30525FF14
:041A9400405CCDB72E
:101A980097110020938101961761002013010156C8
:101AA8001305400097E5FF1F93854555170600204D
:101AB800130606FE63FAC5008322050023A055001D
:101AC80011059105E3EAC5FE17C501001305452474
:101AD800970500209385C5FB1386818363FAC500AB
:101AE8008322050023A0550011059105E3EAC5FEF0
:101AF8001385818397250020938585ED6377B5004D
:101B0800232005001105E36DB5FEFD42739002BC6C
:101B18008D42739042809302800873A0023097E24E
:101B2800FF1F9382A24D93E23200739052309712B6
:101B380000009382621A73901234730020303D4380
:101B48002A876373C3029377F700BDEFADE59376F9
:101B580006FF3D8ABA960CC34CC30CC74CC7410755
:101B6800E36BD7FE11E28280B306C3408A06970270
:101B7800000096966780A6002307B700A306B70063
:101B88002306B700A305B7002305B700A304B700D1
:101B98002304B700A303B7002303B700A302B700C9
:101BA8002302B700A301B7002301B700A300B700C1
:101BB8002300B700828093F5F50F93968500D58DA5
:101BC80093960501D58D61B793962700970200007B
:101BD80096968682E78086FA9680C1171D8F3E9674
:101BE800E374C3F8A5B7B717004003C777051377A1
:101BF800E70FA38BE704130700F8A38DE7043D471D
:101C0800238CE70413075003A38CE7048280411157
:101C18002A83014E930E407E130F0019930F40063E
:101C280063E66E149308001913034006B37815038E
:101C3800854E0D4FA14F337365020D89133515007D
:101C480063E0BE161308F6FF7946729842081358E7
:101C580008013307C70213D61700BE07329761463B
:101C6800B3F6C60213068070B386C6023697A1661D
:101C7800F58F42075D8FB716004083C7F60293F7CA
:101C88000708A307F1000346F10083C7F60293F79C
:101C98000708E394C7FE8347F100B716004093F79F
:101CA800F70F63890714F3270080A18B938681833C
:101CB8006398071401000100B71700401306700568
:101CC8002380C704130680FA2380C704010001009B
:101CD80023AA070303C6170313660608A388C702C7
:101CE80023800704732600809C42A18BD18F7390B8
:101CF800078023AC0182010001001166B71500407E
:101D08007D16DC59C85DA98FF18FE5FFF3270080A8
:101D1800A18B89CBF327008023ACF1829C42DD9B09
:101D28007390078001000100B71700401306700583
:101D38002380C704130680FA2380C704010001002A
:101D4800D8DB03C7170313670704A388E7022380B8
:101D58000704732700809C42A18BD98F739007805A
:101D680023AC018201000100410182807D133368A8
:101D7800E3039308E016630E08003368F30393083F
:101D8800D016630808009378330093B81800938836
:101D9800D81633081E01131E0801135E0E0149B53B
:101DA8006393E5030548638608000148630303005D
:101DB8002A8871087298FD15131E0801C205135E62
:101DC8000E01C181B5BD13F8150063F4BF00790891
:101DD800D5B713381800E5BF83C7F60293F707088D
:101DE800A307F1000346F10083C7F60293F707083B
:101DF800E394C7FE8347F10093F7F70FF1DF65B56A
:101E0800F327008023ACF1829C42DD9B739007800E
:101E180055B54111B7170040985F3AC6945F3247ED
:101E2800E39CE6FE3245410182801D71CEC662DC2C
:101E380086CEA2CCA6CACAC8D2C4D6C2DAC05EDED2
:101E480066DA6AD86ED62A8CEF00700AAA89F32758
:101E58000080A18B9384818389CBF327008023ACF6
:101E6800F1829C40DD9B7390078001000100B71749
:101E78000040130770052380E704130780FA2380C6
:101E8800E7040100010003C7F70213678700A3876F
:101E9800E70203C7F7021377770FA387E7022380C8
:101EA8000704732700809C40A18BD98F739007800B
:101EB80023AC018201000100F3270080A18B89CBAC
:101EC800F327008023ACF1829C40DD9B7390078050
:101ED80001000100B7170040130770052380E704CD
:101EE800130780FA2380E7040100010003C7E70213
:101EF8001377C70F2387E70203C7E70213671700A3
:101F08002387E70223800704732700809C40A18B66
:101F1800D98F7390078023AC018201000100F32759
:101F28000080A18B89CBF327008023ACF1829C40F1
:101F3800DD9B7390078001000100B717004013076D
:101F480070052380E704130780FA2380E704010063
:101F5800010003C737051377870FA389E70403C771
:101F6800370513671700A389E7042380070473273D
:101F780000809C40A18BD98F7390078023AC01828D
:101F880001000100130980C133C92903916B938CA7
:101F98000BE8130A5002930A803E2167130707D003
:101FA800130BA00437140040930D0404617DFD1B3E
:101FB800B3C79903916C330949033EC6B3CA5903A1
:101FC800B347E902130980FA338A4A033EC8B34784
:101FD800EA02130A7005338B6A033ECABD6793870A
:101FE80007A6B347FB02014B3ECC73270080218B29
:101FF80009CB7327008023ACE18298405D9B731066
:10200800078001000100930770052380FD002380ED
:102018002D01010001000347340513670702A309D6
:10202800E40403570405336797012318E4040357AE
:1020380004053367A701420741832318E40423807A
:102048000D00F32600809840218B558F7310078070
:1020580023AC01820100010003473405137707020E
:102068006308071403473405218B6DDF732700804D
:10207800218B09CB7327008023ACE18298405D9BBC
:10208800731007800100010023804D0123802D017A
:1020980001000100034734051377F70DA309E40491
:1020A8000347340513670702A309E404035704052B
:1020B800336797012318E404035704053367A7011E
:1020C800420741832318E40423800D00F32600808F
:1020D8009840218B558F7310078023AC0182010033
:1020E80001000347340513770702630E070E034701
:1020F8003405218B6DFF313B2A873ACE193B724755
:10210800E30DE5FE03570405336797012318E4043C
:1021180003473405218B6DDF8356040503472405E7
:10212800B247B3F6DB003387EB02BA969D8EC247FF
:1021380063D5D700D24763C3F60E09476362670FBA
:10214800E24713061B0013971600137BF60F33475D
:10215800F7026350D040050789463347D702F32674
:102168000080A18A89CAF326008023ACD1829440DA
:10217800DD9A739006800100010023804D012380C1
:102188002D01010001008356C4023697420741839E
:102198002316E40223800D00F32600809840218B4B
:1021A800558F7310078023AC01820100010035BDF3
:1021B80073270080218B09CB7327008023ACE18231
:1021C80098405D9B731007800100010023804D013A
:1021D80023802D010100010003473405136707021E
:1021E800A309E404A9BD73270080218B09CB7327B9
:1021F800008023ACE18298405D9B7310078001004A
:10220800010023804D0123802D01010001000347B7
:10221800340513670702A309E4047DB5E3020BF252
:10222800F3270080A18B89CBF327008023ACF182B0
:102238009C40DD9B7390078001000100B7170040A8
:10224800130770052380E704130780FA2380E70447
:102258000100010003C737059376FC0F1377870F3A
:10226800A389E70403C73705558FA389E7042380AB
:102278000704732700809C40A18BD98F7390078037
:1022880023AC018201000100B71700401306700556
:10229800930580FA03C737051D8B631E872BF32729
:1022A8000080A18B89CBF327008023ACF1829C406E
:1022B800DD9B7390078001000100B71700401307EA
:1022C80070052380E704130780FA2380E7040100E0
:1022D800010003C7370591661377F70DA389E70453
:1022E80003C7370513670702A389E70403D7070560
:1022F800558F2398E70403D70705A166558F2398C0
:10230800E70423800704732700809C40A18BD98FA2
:102318007390078023AC018201000100B7170040C9
:1023280093067005130680FA03C73705137707026B
:10233800630A07263717004083473705A18BEDDF6F
:10234800F3270080A18B89CBF327008023ACF1828F
:102358009C40DD9B7390078001000100B717004087
:10236800130770052380E704130780FA2380E70426
:102378000100010003C7370591661377F70DA3899C
:10238800E70403C7370513670702A389E70403D7E0
:102398000705558F2398E70403D70705A166558FCE
:1023A8002398E70423800704732700809C40A18BAF
:1023B800D98F7390078023AC018201000100B71701
:1023C800004093067005130680FA03C73705137794
:1023D8000702630107223717004083473705A18B9F
:1023E800EDFF053C2A843534E30F85FE371700409E
:1023F800835707059166D58F2318F7048347370558
:10240800A18BEDDFF3270080A18B9386818389CB95
:10241800F327008023ACF1829C42DD9B73900780F8
:1024280001000100B7170040130770052380E70477
:10243800130780FA2380E7040100010003C737056A
:102448001377F70DA389E704238007047326008018
:102458009842218B518F7310078023AC01820100B1
:10246800010003D7070503C627059167FD177D8F70
:10247800B387C70237460F0013060624B3C9C9023B
:102488003E978567938707FAB3978701B389370320
:1024980093070010B3C9F9029307800C8E09B3099A
:1024A80037410547331C8701135C3C40B30A5C0382
:1024B800130C60553D67130707A6B38A8A03B3CA8E
:1024C800EA02B387F902B3C75703635D301785077C
:1024D8000947B3C7E702960773270080218B09CB0A
:1024E8007327008023ACE18298425D9B73100780BC
:1024F8000100010037170040130670052300C704C8
:10250800130680FA2300C704010001000356C7021E
:10251800B297C207C1832316F70223000704732763
:1025280000809C42A18BD98F7390078023AC0182D5
:1025380001000100F6406644D6444649B649264A99
:10254800964A064BF25B625CD25C425DB25D2561E5
:1025580082807D1711B173270080218B09CB7327E7
:10256800008023ACE18298405D9B731007800100D6
:1025780001002380C7042380B7040100010003C7BA
:102588003705558FA389E704238007047325008046
:102598009840218B498F7310078023AC018201007A
:1025A8000100CDB973270080218B09CB73270080E8
:1025B80023ACE18298405D9B731007800100010005
:1025C8002380D7042380C7040100010003C737050F
:1025D80013670702A389E70423800704F325008013
:1025E8009840218B4D8F7310078023AC0182010026
:1025F80001001DBB73270080218B09CB7327008046
:1026080023ACE18298405D9B7310078001000100B4
:102618002380D7042380C7040100010003C73705BE
:1026280013670702A389E70423800704F3250080C2
:102638009840218B4D8F7310078023AC01820100D5
:10264800010061B3FD1769B5914763EEB70217B78B
:1026580001001307A7F78A05BA959C41BA978287A4
:10266800B717004003A7470B1345F5FF698F23AA47
:10267800E70A03A7070B698F23A8E70A03A7070A36
:10268800798D23A0A70A8280B717004083A6470B3D
:102698001347F5FFF98E23AAD70A83A6070B558D92
:1026A80023A8A70A83A6070A758F23A0E70A8280B2
:1026B800B717004003A7470B498F23AAE70A03A7C8
:1026C800070B1345F5FF45BFB717004083A6470B17
:1026D8001347F5FF758F23AAE70A03A7070A598D41
:1026E8004DB7B717004003A7470B498FEDB7B7178A
:1026F800004003D58700420541819377050491EB9B
:102708009377F5013755E801130505803345F50240
:1027180082809377050C130700046397E70093778B
:10272800F50137459C1CCDB72165130505D082807E
:10273800B7F700E08847CC478280814737370040A9
:10274800A14663C4C700328582800345B740E38E43
:10275800A6FE3385F5000345050085072304A74039
:10276800CDB7411122C406C62A8451372947B30779
:10277800E502B2408D83B3D7870222449507B3D7C9
:10278800E70237370040C207C1832316F7404101EB
:102798008280716541111305052006C6D937B73700
:1027A8000040130770F82381E7400D47A381E740F5
:1027B80013070004A380E74005472387E740B2409A
:1027C8004101828011456FF04FE641119396250033
:1027D800AA852D4506C697E0FF1FE780A0E7B2400F
:1027E800014541018280411126C29394250022C4EB
:1027F8004AC02A843289A686AA850146254506C686
:1028080097E0FF1FE78000E5A6864A86A28529454E
:1028180097E0FF1FE78000E4B24022449244024957
:10282800014541018280011122CC06CE37140040B7
:1028380026CA4AC84EC652C483447405034AB4051E
:102848008349840503499405EFF0EFB98347A4054C
:1028580093F4F40F137AFA0F93E71700230DF40497
:1028680093F9F90F1379F90FB717004003C7A705B4
:10287800058B6DFF03D5C705A38D4705238C370549
:10288800A38C2705A38B9704F2406244D2444249A3
:10289800B249224A0561828041119397050122C4F9
:1028A80006C6C1872E8463DB0700092311C1712185
:1028B8002165218DB24022444101828093F71500A1
:1028C80013C51500E5FB9397250163D00702EFE0D8
:1028D800E003CD3D37F60200130606E0896503C51F
:1028E800C183EF00D0120965E9B793971501014537
:1028F800E3D207FC17B50100130505D3EF90713338
:1029080013060064916503C5C183EF00501011657B
:102918004DB71D71494697B50100938565CC17B52C
:102928000100130525E986CE97E0FF1FE7802012F6
:1029380001E917B501001305E5CBEF90912F01A030
:10294800B7F600E0795798CAFD57DCCA0567B7E7BC
:1029580000E023A0E7101306F00290C223A0E718B6
:10296800010001001306C0038145480897E0FF1FD6
:10297800E780600897F7FF1F9387473A3ECA896741
:1029880093870780231CF1009307D0032304F102E7
:10299800A167938707E03ECEB70701059387071025
:1029A8003ED0ED472312F10285472303F102970732
:1029B80000009387C7E1BEC4970700009387E7E24A
:1029C800BEC68567938717D02315F10297070000C5
:1029D800938747D63EDAB7F5070097070000938735
:1029E800C7E43EDE8146970700009387E7DD700065
:1029F800E1051945BEC097E0FF1FE780A0C558084C
:102A08008147994670003E960346060085070507EC
:102A1800A30CC700E398D7FED24791C7035781019B
:102A280085676373F70001A04808EF00B057AA85CF
:102A380001C917B50100130525BDEF90F10D01A0DF
:102A4800F64025618280411117050000130505E550
:102A580006C622C4EF0050511384C1832300A4008A
:102A68002928034504002244B24037F60200130621
:102A780006E0896541016F008079411106C6F32798
:102A88000080A18B1387818389CBF327008023AC37
:102A9800F1821C43DD9B7390078001000100B7178A
:102AA8000040930670052380D704930680FA23809C
:102AB800D7040100010083C6F70293F6A60FA38787
:102AC800D70223800704F32600801C43A18BD58FEF
:102AD8007390078023AC018201000100F327008076
:102AE800A18B89CBF327008023ACF1821C43DD9BAB
:102AF8007390078001000100B71700409306700526
:102B08002380D704930680FA2380D70401000100AC
:102B180083C6F70293E62600A387D702238007041B
:102B2800F32600801C43A18BD58F7390078023ACBC
:102B380001820100010079311305407E8147014778
:102B4800814605468545EFF08F8CB240014541012D
:102B58006F00F07589476305F50263E6A7008547AE
:102B6800630AF50082808D476301F5029947630384
:102B7800F502828017B50100130545AB6F90710B04
:102B880017B50100130585ABD5BF17B501001305AF
:102B9800E5ABEDB717B50100130505ADC5B7411194
:102BA8009397050122C406C6C1872E8463DD0700FA
:102BB80003C54184E52A11C149222165218DB2400E
:102BC80022444101828093F7150091CB17F5FF1F2E
:102BD80013054502EF10815713451400CDB793F73D
:102BE80025000145E9DF97F7FF1F83C7F7EB8D46FF
:102BF80005476385D700850713F7F70F97F7FF1F7A
:102C0800A384E7EA97F7FF1F83C7D7E903C5418481
:102C18009DE78547056617F7FF1FA305F7E8130625
:102C2800062C8945ED2397F6FF1F938666E66946CD
:102C380085450145EF40E0661345240049B7056620
:102C480097F7FF1FA38007E613060696D9BF011161
:102C5800170500001305E5F406CE22CCEF00D030AE
:102C68001384418485472300A4002307F100130639
:102C7800E1008D47854513055030A307F100EF307B
:102C880081211306F100854513058030EF30A1201E
:102C980017F6FF1F1306C6DFE94513056030EF304E
:102CA800811F9305000A0D45EF2030009305000AA7
:102CB8001145EF20807F034504008545052903451C
:102CC800040005661306062C89459123F2406244E8
:102CD8000561828041111305800406C697D0FF1F45
:102CE800E780E03A371700408327870A8D451305A8
:102CF800002093E707202324F70AB932593C17B577
:102D08000100130525ABEF90C17221312D3BEF3047
:102D1800614A353F97E0FF1FE780808723AC05FEB7
:102D28001C4191E7010001000CC18280BA8703A70A
:102D380087FF6DFF23ACB7FE82801DC18346E5FF88
:102D48001307F00F9147639EE600411106C697F0FE
:102D5800FF1FE780E0B1B24081473E854101828094
:102D680095473E85828001E9014582800145B24050
:102D780022444101828095654111938505D022C482
:102D8800C98D2A842105C2054205C181418106C633
:102D980097F0FF1FE780A0A071D9FD5723200500F9
:102DA800231285002303F5002105D1B7170700205A
:102DB8001307877B1C43411122C426C24AC006C69A
:102DC80001440149BA8489E7A16595251DC401A874
:102DD80003C7E7FF631AA7020DCCA165012E98402F
:102DE800832784FF6319E40217070020232EF77650
:102DF800FD57232C04FE230FF4FE2285B240224403
:102E0800924402494101828011E03E8983A787FFED
:102E18005DBF3E84E5BF232CF9FED9BFB1CD41117A
:102E280022C406C62A849707002083C737742E85D4
:102E38006375F400894763E8870001370D45B240A0
:102E480022444101828083A785FF99E703C7E5FFF4
:102E58009307F00F6305F700CD351545CDB7238FE0
:102E680085FE17050020130525704D3D2285224457
:102E7800B240A16541019DAC1545828097070020AD
:102E880023A4076E828097070020938767739C436B
:102E980099E33E85828003D727006316B70003C7EE
:102EA8000700E308A7FEDC47E5B7C9C1797122D45A
:102EB80006D626D24AD04ECE01444147B3D78540E4
:102EC800858BA5C31205314722953305E50297077F
:102ED80000209387E77203A907008544B394840010
:102EE800C204C180BE892A990327090011C7032596
:102EF80049002EC60297B24531473304E40283A73E
:102F080009003E941C4489E7232009002322090074
:102F1800B2502254A58D02599254F2492E8545612A
:102F280082800504E31CE4F88144DDB72E858280A5
:102F380041111397050122C406C626C24AC041871B
:102F48002E84635E07009D3511C1C53BA1673D8C8A
:102F58002285B24022449244024941018280EDD93F
:102F6800AA8701474146B356E440858A8DCE920729
:102F7800BA97B146B387D70297060020938646686A
:102F880003A906008544B394E400C204C1803E99B5
:102F9800832709000325490082972320090023225B
:102FA8000900258C75B70507E31FC7FA8144D5BF0B
:102FB80097070020938707619C53411122C406C6D6
:102FC8001384818099C782971C403E9523A4A180D1
:102FD80039A0970700209387275E9C43EDF70840A8
:102FE800B74703009387D73F3305F502B7A72600F5
:102FF800938737ECB24022443E9523A4A180410137
:1030080082807DC1970700209387075B9C43797175
:1030180022D426D24AD04ECE52CC56CA5AC806D648
:103028005EC63A8AB689328BAE8A2A898297970712
:1030380000209387E75C9843BE840144B146C147AA
:10304800B30BD40233067701104251EAC165938568
:1030580005F0414597E0FF1FE78060741DE597077D
:103068000020938727569C5B2D4589C711458145CC
:1030780082972D45B250225492540259F249624A1D
:10308800D24A424BB24B4561828097070020938712
:103098002753984329E39707002023A3A752230027
:1030A80005009C4005473317870023260500232485
:1030B80065012311E50023224501DE9723A027019E
:1030C80023A2570123A447010145E38509FA238078
:1030D80089004DB73E875C47F5FF48C7C9B7050467
:1030E800E310F4F6214579B7094582809707002057
:1030F80083C7D7476371F502170700201307074CEA
:103108009317150008433E9583570500DD8D23105E
:10311800B500014582800D4582809707002083C74E
:10312800F7446373F502170700201307274993171D
:103138001500084393C5F5FF3E9583570500FD8D9F
:103148002310B500014582800D458280130705FFD5
:103158001377F70FFD4763E9E70AB146B306D502CF
:10316800970700209387C74998438947369718439C
:1031780049CF011122CC4EC60544935945003D89DB
:103188003315A40013140501418026CA4E85AE8468
:10319800A2854AC806CEC5392A89814731CDA2857C
:1031A8004E85A53F97070020938707419C43829748
:1031B8009707002083D7C745338797022A8481461B
:1031C80013060064B3B7970213050732B335E50059
:1031D800BE95EF80F15AB3078500970600209386C5
:1031E800A6423E87D44263E4A70063E4D70033874E
:1031F800D7402324E9008147F2406244D24442493F
:10320800B2493E850561828089473E85828097075D
:10321800002083C7B7356364F5000145828001113A
:10322800970700209387473956C283AA070006CE1E
:1032380022CC26CA4AC84EC652C4638D0A0A170A47
:103248000020130A6A3C83244A00B74736FE938756
:1032580007C8AE899705002083D5853BBE94B38700
:10326800C5022A8432898146B3B5C502138507325F
:10327800B337F50013060064BE95EF80715063EB19
:10328800A406829A9705002083D58538B38725033D
:10329800AA84130600648146B3B525031385073253
:1032A800B337F500BE95EF80B14DB3079500BE84E6
:1032B80003274A0063E4A70063E4E700B384E74018
:1032C800CE852285C93601C504C505452DA093655F
:1032D80004F0C205C181414597E0FF1FE780204CFB
:1032E80005E5970700209387E72D9C5B81C7A2859A
:1032F800114582970145F2406244D2444249B2499D
:10330800224A924A05618280970700209387472BBB
:103318009C439DE39707002023A4A72A85472326DB
:10332800050004C52311350123008500A300F5001D
:103338002322050059BFBA87D84775FFC8C7F9BF08
:1033480059C9797122D426D24AD04ECE52CC56CA07
:103358005EC662C466C206D65AC83689328AAE8943
:10336800AA844144314C970A0020938A6A29854CE3
:10337800930B0003330B840303A70A005A971C43DB
:10338800B1E79375F400B395BC0013554440C205EA
:103398005286C1811375F50F9D3D0DC983A70A009B
:1033A8000145DA9784C323A2370163040900230087
:1033B8008900B250225492540259F249624AD24AC0
:1033C800424BB24B224C924C456182800504E31378
:1033D80074FB2145F9BF09458280411122C426C2E8
:1033E8004AC006C62A842E89B2841535CA85228524
:1033F800593C05CD9705002083D58521B3879502D3
:103408002A84130600648146B3B5950213850732F2
:10341800B337F500BE95EF80B13648C00145B240DC
:10342800224492440249410182802145CDBF411185
:1034380022C426C24AC006C62A892E84A934AA8470
:1034480019C123110500A2854A85C13997070020B3
:1034580083C7C711639B27019707002083D7871568
:103468005D8C9707002023978714014591E0194543
:10347800B240224492440249410182809307F002FB
:1034880063E8A7044111B14722C43304F50226C2F8
:10349800970400209384C4169C4006C6A2979843BC
:1034A80089470DC39377F5008545B395F500C205A7
:1034B800C1811181AD3F9C40A29723A0070023A2A0
:1034C80007008147B240224492443E8541018280F0
:1034D80089473E858280411106C622C46D3211E5B6
:1034E8000145B2402244410182809707002093871A
:1034F800A70C9C4300458297970700209387C71025
:103508006368A402D843B74636FE938606C83305D7
:10351800A4403697E376E5FC13070064B335E5026B
:1035280003D6870081463305E502EF80712555BF34
:10353800D8433A94C1BF411122C426C217040020BF
:103548001304840C97040020938444029448584040
:10355800970700209387470606C69C436393E608AF
:1035680082975440B74736FE938707C8B697338784
:10357800A7003A856364F7006364D7003305D74032
:1035880097040020938404219C4C81CF9707002046
:103598009387472794433707CDFF7D179C46F98FBC
:1035A8009CC611E14840970700209387A701DC5388
:1035B800829719E59C4C8DC3EFD0C04BEFC0B02E5D
:1035C8009C4C99CB970700209387C7239843B7064D
:1035D80033001C47D58F1CC7B24022449244410196
:1035E8008280829798489707002083C7F7FE544047
:1035F8001D8FB307A7003E8563E4E700E3E2D7F831
:103608003385D740B5BF411106C69707002023ABC5
:10361800A7FE0295B2409707002023A5A7F601450B
:1036280041018280994763E9B7008A05970700201E
:10363800938787F6BE9588C182804111714681457E
:1036480017050020130545F506C69707002023A98E
:1036580007F69707002023A707FA9707002023AD4E
:1036680007F497D0FF1FE7800039130680028145D1
:1036780017050020130585EF97D0FF1FE780A037B7
:10368800EF20113D9707002083C737F513D5270092
:103698008D8B3E958D473305F502854539051375A4
:1036A800F50F970700202384A7EC99473305F50207
:1036B8001305052497E0FF1FE780600E1707002019
:1036C8002320A7F459CD994717060020034626EA78
:1036D8003306F60281451306062497D0FF1FE780BC
:1036E8008031970700209387A7F19C43938707248D
:1036F800170700202320F7EA17070020034727E7CA
:103708000A07BA9717070020232AF7EAEFF00FF7FE
:10371800F929970700209387E7E794439707002044
:1037280083C7D7E413972700369717F6FFFF1306CA
:10373800067810C3138717001377F70F0A07369711
:1037480017F6FFFF1306067F10C313873700890794
:1037580093F7F70F8A0797050020A389E5E0B69746
:1037680090C3B240410182809707002083C717E0C9
:10377800170700200347A7DF63F3E70217070020B6
:10378800130747E118439386170017060020A30F75
:10379800D6DC93962700369708C33E858280930728
:1037A800F00FE5BF1C41638A071641777D8FB70686
:1037B800002089476314D71603574500630007168E
:1037C800411122C419462A849305F00F690506C6DB
:1037D80097D0FF1FE780402C05478D47630AE51205
:1037E8001C4481CB5858994763040712185C63013D
:1037F80007121306C003814517050020130585DC51
:1038080097D0FF1FE780201F1306C003A285170566
:103818000020130525DB97D0FF1FE780401A170704
:1038280000200357E7DA970700209387A7D919E7FD
:103838001307001097060020239CE6D817070020DE
:10384800034727D911E70547970600202383E6D8C1
:1038580017070020035707D811E76D479706002080
:10386800239AE6D6170700200347B7D611E715476E
:1038780097060020A38FE6D4170700200347A7D593
:1038880011E70547970600202387E6D4170700208D
:10389800034777D419E703C7F70097060020A38CDE
:1038A800E6D217070020034727D311E735479706C5
:1038B80000202383E6D217070020034737D219E7F1
:1038C8001307800297060020A38AE6D01707002076
:1038D800034797D019E71307D00297060020A38D56
:1038E800E6CE0347840119E71307C00397060020B3
:1038F8002386E6CE9C5791C7829797070020239B83
:10390800A7C6FD5717070020A300F7F63D338147E8
:10391800B24022443E854101828089473E858280AB
:1039280001114EC697090020938909CE83A7090083
:1039380006CE22CC26CA4AC852C48297130900640C
:10394800B335250303DA89008146528633052503FA
:10395800EF80016397070020938747C1804FAA84AF
:1039680001456306940233858440636E940003A581
:10397800490052868146B335A9023305A902EF8072
:103988002160018D26959707002023AD97BEF24050
:103998006244D2444249B249224A0561828097076B
:1039A800002083D707C751471D45637CF702794735
:1039B80019456378F7021307200315456373F70267
:1039C8001307B0041145637EF700130740060D4541
:1039D8006379F7001307600909456374F70013B5A5
:1039E800B70F8280011122CC06CE2A842EC6EFF0B2
:1039F8002FDCB245F240818D33A5A50222956244A1
:103A08001375F50F05618280011122CC06CE2A8438
:103A18002EC6EFF0EFD9B245F240818D33A5A5024D
:103A2800229562444205418105618280011122CCC0
:103A380006CE2A842EC6EFF0AFD7B245F240818D6C
:103A480033B5A5022295624405618280970700205C
:103A5800938747B7985739CB411122C426C206C667
:103A6800BE840297170700200357C7B02A8415CBD6
:103A7800BA876373A700AA87C207C183BA8663732C
:103A8800E400A286C206C182958F5147635BF700A6
:103A9800DC5491C38297EFC0706797070020239B7F
:103AA80087ACB240224492444101828082809707C9
:103AB8000020938727B1DC57011106CEAA8581C75C
:103AC8002AC68297B245D9C19C410545ADCFDC4194
:103AD800BDCB83D78500A5CB83D7A500ADC783C74A
:103AE800C500B5E34146170500201305E5B197D099
:103AF800FF1FE780C0EC970700209387E7B09C433F
:103B080017070020232AF7AA9707002083C717ADB5
:103B18008DE79307800217050020035565AF33052D
:103B2800F50237460F001306062481468145EF80CB
:103B3800214597070020A383A7AA170500001305AE
:103B480065DED1340145F240056182809707002087
:103B580083C7A7A81397870161876350070497074E
:103B6800002023A307A297D7FF1F9387472817078B
:103B78000020232BF7A8FD57170700202328F7A8B4
:103B8800B7873200938727A1170700202322F7A8B9
:103B980097070020238007A8B9BF13F7170005CBA4
:103BA800B7872003938707D0170700202322F7A69B
:103BB800B707C0A817070020232AF7A497D7FF1F25
:103BC80093870726170700202320F7A4D1B761772A
:103BD80097060020239EE6A281CB930700321707A1
:103BE80000202318F7A2E9B793072003CDBF0111DE
:103BF80022CC170400201304E49C084406CE26CAED
:103C08004AC801E90545F2406244D2444249056187
:103C180082805C58E5DB185C75D770008545829713
:103C28001844B247E300F7FE9305E00417050020A7
:103C38000355059A97E0FF1FE78060B61707002035
:103C48002326A79461D1170600200356669893058A
:103C5800F00F97D0FF1FE78000DA81441709002092
:103C68001309C9909707002083C7A796032609025E
:103C780063C1F402328597E0FF1FE78060BF01450A
:103C88009707002023A407909707002023A20790F6
:103C98009DBF9705002083D5A593B3879502084457
:103CA800185C898185043E9508C2029765BF011199
:103CB80056C2970A0020938AEA9083A78A0022CCEA
:103CC8004AC84EC606CE26CA52C45AC0AA892E84ED
:103CD80032896385072203A74A03630707147D47D0
:103CE8006366A714970400209384448803AA0402F7
:103CF80063170A0A9565938515E017050020035593
:103D0800258D97E0FF1FE78080A99707002023AF44
:103D1800A7862A86630A051083A74A0303A58A0093
:103D28009705002083D5C58A8981829783A78A0051
:103D380003AA040217070020232CF7848947639CF1
:103D4800F908C1476312F40E9705002083D545880A
:103D5800938505FC9147B3C5F5028A05D29503C73B
:103D680005009307A005631DF70A83C7150063992B
:103D7800370B4A852286910597D0FF1FE78020C41C
:103D88009C505285639347150145F2406244D244E2
:103D98004249B249224A924A024B05618280D85070
:103DA800E38EE7F89565938525E017050020035510
:103DB800258297E0FF1FE780809E2A8A35C52A86DC
:103DC80083A74A0303A58A009705002083D5458069
:103DD80089818297A5B78D47639DF900C14763150F
:103DE800F40497F5FF1F83D5A57E938545FDF199CA
:103DF800B5B79147639AF9006318340397F5FF1F25
:103E080083D5057DA115E5B7C147639FF900A14793
:103E180063EC870097F5FF1F83D5857BC115C1BF6C
:103E28009C5052856397470D294585B71307F006BF
:103E3800568B6361A70A130A05FE1947334AEA023B
:103E480017F7FF1F0357C77897FAFF1F938A0A725D
:103E5800330AEA023E9A83A74A026395470183A47C
:103E68000A029DE49305E00417F5FF1F0355457604
:103E780097E0FF1FE780A092AA845DD583274B03B4
:103E880097F5FF1F83D5C5742A8689815285829745
:103E980091451307A005898193972500A69783C6A6
:103EA80007006393E60483C61700639C3603850501
:103EB8008A052286A6954A8597D0FF1FE78020B0FD
:103EC80083A70A02E38297EC268597E0FF1FE78025
:103ED800209A5DBD1307E007E368A7F4130A05F904
:103EE80085B783D5270045BF83A70A02E38E97F2DB
:103EF800268597E0FF1FE780A0973DB797F7FF1F3C
:103F08009387C7668C538DD191479306A005898303
:103F1800139727002E9703460700E317D6F00346AA
:103F28001700631C360185078A072286BE954A85D5
:103F380097D0FF1FE780A0A881BD83572700C1BF86
:103F480097F7FF1F93870768984739C79C5FA9C7EA
:103F580005476313E504411122C417F4FF1F130436
:103F6800E460105006C60DC6485097F5FF1F83D56C
:103F7800256689818297085097E0FF1FE780408F68
:103F880097F7FF1F23A4076097F7FF1F23A2076077
:103F9800B2402244410182808280011117F7FF1F3D
:103FA800130747624EC68329870022CC26CA4AC80F
:103FB80006CE52C456C2AA842E843289638A092046
:103FC8001C5FBA8A99EB2945F2406244D2444249BF
:103FD800B249224A924A056182805C5BEDD7FD476F
:103FE80063E9A70E97F9FF1F9389495883A7090228
:103FF800B1CB03A58A0083A749026395A706894721
:104008006393F408C147E310F4FC17F5FF1F035549
:10401800255C9147130505FC3345F50293172500E8
:1040280003A509022286CA853E959307A0052300A9
:10403800F500A3009500110597D0FF1FE780209891
:10404800014559B79305E00417F5FF1F0355455877
:1040580097D0FF1FE780A07497F7FF1F23A8A752E8
:1040680049F995B783A74A0303A6090297F5FF1FE5
:1040780083D505568981829783A78A0017F7FF1F82
:104088002328F750ADBF8D47639EF400C147E31C5A
:10409800F4F217F5FF1F0355A553130545FD937754
:1040A800C5FFBDBF9147639AF400E31E94F017F56E
:1040B800FF1F0355E5512115DDB7C147E395F4F01E
:1040C800A147E3E287F017F5FF1F03556550411537
:1040D800F9B79307F00663EAA706930705FE1947A1
:1040E800B3C7E70217F7FF1F0357874E17FAFF1FDB
:1040F800130ACA47B387E702BE9983270A02A9CFE2
:1041080083274A02639A370703250A029146130850
:10411800A005FD5593D72600C207C1831397270032
:104128002A9703460700631D0607834817000356AE
:10413800270063959806B306D64063CF86048507A3
:104148008A072286CA853E95C5BD9307E007E3EC3A
:10415800A7E6930705F979B79305E00417F5FF1F5C
:104168000355054797D0FF1FE780606397F7FF1F48
:1041780023AEA74051F581BD83A74A0303260A024F
:1041880097F5FF1F83D5C54489814E85829797F798
:10419800FF1F23AF373F8DBFA300B700B2869DBF77
:1041A800B385860017F6FF1F03568642910513064E
:1041B80006FCE3FAC5E0130634001376C60F1106B1
:1041C800B29623000701A30097002311D70085BFEB
:1041D80097F7FF1F938787399453BE89A1C203A518
:1041E800090291461308A005FD5593D72600C2077A
:1041F800C183139727002A9703460700631606050D
:10420800834817000356270063989800B306D640E2
:10421800E3D786F2A300B700B286C1BF8357C700B1
:1042280017F5FF1F0345E53A9305E0043305F5024A
:104238004205418197D0FF1FE780605697F7FF1F1F
:1042480023A6A73449FD41B317F6FF1F0356463886
:1042580097F5FF1F83C5E537B385C502338686000A
:104268001106E3E2C5D681BF01458280011106CE61
:104278002EC6EF70E07E01C9B245F2400355250015
:1042880005616FB07014F240494505618280A388CA
:1042980001862388018623AC018423AE018423A0F0
:1042A800018623A2018623AA018423A8018497F703
:1042B800FF1F93876738930640382391D702F1761A
:1042C8001307400B938606B82391E7002392D70281
:1042D80011679D46130600059305000A1305007D26
:1042E8002392E7002393D70241478546130810F825
:1042F8002395E7002396E7002399E700239AE70030
:10430800239BE700239CE7002394E70223960703F7
:10431800239007002393B7002394B7002397C7007F
:104328002398C700239DA700239E0700239F07000B
:10433800239007022395D702239707021308F00753
:10434800239807022392E7042393E704239FE704B3
:104358002390E7062391E7062392E70623990703AC
:104368001307C01C239AD702239BD702239C07025A
:10437800239D0702239E0702239F07022390070419
:104388002391D70423940704239507042396D7047D
:104398002397C7042398C7042399A704239A0704DB
:1043A800239B0704239C0704239DC704239EC7045B
:1043B8002393A70623940706239507062396070643
:1043C8002397B7062398B70623990706239AE70683
:1043D8005147239DE7067D57239B0706239C070625
:1043E800239ED706239F07062390070823910708D3
:1043F8002392E7088280011126CAAA84214522CC8B
:1044080006CE2E8432C636C43AC2EFE0DF951DC907
:10441800A24612473246930700FD2300F50099474C
:10442800A30095002301F5002303D500A303E500AD
:104438002312C500AA8522856244F240D244056150
:104448006FE0DF9DF2406244D2440561828023AC74
:10445800A184828023AEA184828023A0A186828049
:1044680023A2A1868280011122CC4AC806CE26CA80
:104478002A890144B30489006368B400F2406244A5
:10448800D2444249056182802EC6EFE07FB293177D
:104498000501C183A183B2452380F400930714006A
:1044A80093F7F70F850463F9B700CA9709042380C7
:1044B800A7001374F40F7DBF3E847DBFC16717F555
:1044C800FF1F0355C515FD176304F502411117F6C3
:1044D800FF1F0346662A9385818606C6EF7040361D
:1044E800B240FD5717F7FF1F231BF71241018280C7
:1044F800828009C925151375F50F1335850E1345E7
:10450800150082800145828023900500C9C6797113
:1045180022D426D24ECE52CC5AC806D64AD056CA33
:104528005EC63684328AAE892A8B814463F3440797
:10453800B307940083C70700138914004209939AAC
:10454800070193DA0A011359090163840A04CA9717
:104558006341FA04B307240183CB07005E85513F0A
:104568000DC99387FAFF2390F90063906B03130535
:1045780019002295B250225492540259F249624AC3
:10458800D24A424BB24B45618280D694C204C18064
:1045980071BF0145C5B701458280411126C2AE846D
:1045A80022C497F7FF1F23A3C70897F7FF1F23AD60
:1045B800B70697F7FF1F23A7A7062A844146930546
:1045C800F00F26854AC006C6054997C0FF1FE78039
:1045D800A04C6310250597F7FF1F9387E703884BC7
:1045E800C145513541469305F00F228597C0FF1FFD
:1045F800E780804A854463189502224497F7FF1F95
:1046080093878701B24092440249C847C145410196
:1046180099BD41468145268597C0FF1FE780C04761
:10462800E31225FD4DBF41468145228597C0FF1FF6
:10463800E7808046E30395FCB24022449244024955
:1046480041018280411122C426C22E84AA84130605
:104658000002814517F5FF1F130505FC06C697C024
:10466800FF1FE780403997F7FF1FA38897FA97F74E
:10467800FF1F23858710EFB02057854719C1814751
:104688004945B240224417F7FF1F2307F7F8924421
:1046980041018280814781CD19C98547631BF50097
:1046A80083C7550093E707FCA382F50085473E853D
:1046B800828089476317F50083C7550093F7F7038E
:1046C800E5B70D478547E314E5FE03C755001377A3
:1046D800F70313670704A382E500D1BF81478DC1A3
:1046E80005C103C755009306000C85471377070CCF
:1046F8006308D700930600048D476303D7008947F2
:104708003E858280411122C4005D06C626C21DC8AE
:10471800AA84085009C597D0FF1FE7806015485044
:1047280009C597D0FF1FE780A014085409C597D082
:10473800FF1FE780E013228597D0FF1FE780401313
:1047480023AC0402B240224492444101828009ED24
:1047580097F7FF1F83C767EC17F5FF1F130545ED94
:1047680081CB13858184828017F5FF1F130545ECE3
:10477800828017F5FF1F034545EA828097F7FF1FE0
:10478800938787E9C847828097F7FF1F9387C7E811
:10479800884B828097F7FF1F938707E8DC4B884395
:1047A800828097F7FF1F938727E7D84B1C4385071D
:1047B8001CC317F5FF1F034555E69307F00F630564
:1047C800F50091656FE09F928280011122CC06CEA0
:1047D8002E8432C6EF7080399147B245631FF500C9
:1047E800938741869C438DC303A30700630E030090
:1047F80022856244F240056102839387C1859C4308
:1048080081C703A34700DDB7F2406244054505614F
:104818008280011122CC2A840355450006CE26CA7F
:104828004AC84EC6EF70A01235C52A8983440500D0
:104838008349C500C13D4A85EF70606E0355440049
:10484800EF70002E83C70187B1CB6399970483C5A6
:1048580011872685EFF09FA119E12388018603556A
:104868004400EF70A0309147631FF50003574400E0
:1048780097F7FF1F83D7A7DA6317F700FD5717F7D6
:10488800FF1F231EF7D8F2406244D2444249B2497E
:104898000561828081499304F00F6DB79307F00F8B
:1048A800E38FF4FA8346640003564400034524006A
:1048B8004E87A685893665B779715EC6AA8B2E851F
:1048C80052CC56CA5AC806D622D426D24AD04ECE80
:1048D800AE8A328B368AEF7080077DC1045D2A89E3
:1048E800E5C09C50614599C3130540039C5481C79A
:1048F80051054205418163050A0071054205418160
:10490800DC5081C75D0542054181EFE0CFC52A84AF
:1049180045C96146814597C0FF1FE780C00D97F9DB
:10492800FF1F83C969D46394090083490900930769
:1049380000FD2300F400A947A30074012301F4003B
:10494800230364018C50231254011305840191C977
:1049580008C47146930A440397C0FF1FE7802006E6
:1049680056858C5491C948C45146930A450197C04D
:10497800FF1FE780C0045685630C0A0008C871460B
:10498800D285930AC50197C0FF1FE780400356856B
:10499800CC5099C548C85D4697C0FF1FE7802002E4
:1049A800A2854E85EFE08FC72254B2509254F24947
:1049B800624AD24A424BB24B4A850259456199B381
:1049C800B250225492540259F249624AD24A424B96
:1049D800B24B4561828001114EC6AA892E854AC80C
:1049E80006CE22CC26CA2E89EF60707621C997F4AC
:1049F800FF1F83C464C799E0834405001945EFE0AD
:104A08008FB62A8405CD8145194697C0FF1FE780D8
:104A180080FE930700FD2300F400B947A30034018A
:104A28002301F40023122401A2856244F240424982
:104A3800B2492685D24405616FE04FBEF240624418
:104A4800D2444249B2490561828039715ECEAA8B4F
:104A58002E8526DA4ED652D456D25AD006DE22DC1D
:104A68004AD8AE84328BB68A3A8ABE8942C6EF608B
:104A7800106E21CD2A894145EFE0EFAE2A8431C579
:104A88004146814597C0FF1FE780E0F617F5FF1FF5
:104A9800034585BD19E103450900930700FD23007F
:104AA800F400BD472301F400B247A30074012312A8
:104AB800940023046401A304540123054401A305BD
:104AC80034015CC4A285EFE06FB5F2506254D25451
:104AD8004259B259225A925A025BF24B21618280A2
:104AE800797126D2AA8439454AD04ECE06D622D428
:104AF8002EC6B2893689EFE00FA721C1B2459307C8
:104B0800000D2310F500B1472A842312B5002301B4
:104B1800F500CE851905194697C0FF1FE78020EAE2
:104B280023062401A2852254B2500259F24913F5F2
:104B3800F40F925445616FE06FAEB2502254925414
:104B48000259F2494561828017F7FF1F0347F7AC06
:104B58009307F00F630DF706411126C2AA84394561
:104B680022C406C64AC0EFE00FA02A8439C99307B9
:104B780000FD2300F500A30095002301050097F52B
:104B8800FF1F9385E5AA0D05194697C0FF1FE7800B
:104B980000E317F9FF1F130929A883578900A28585
:104BA80017F5FF1F034575A72315F4008347190060
:104BB8002306F4002244B2409244024941016FE0C6
:104BC800EFA5B2402244924402494101828082808A
:104BD80001115AC02A8B314526CA4EC652C456C244
:104BE80006CE22CC4AC8AE84B28A368ABA89EFE0A9
:104BF8008F9735CD2A842685EF60705511C50347F8
:104C0800C500A1476314F70417F9FF1F0349F9A06A
:104C1800930700FD2300F4009D47A30064012301CE
:104C2800F400231294002313540123144401231580
:104C38003401A2856244F240D244B249224A924ADF
:104C4800024B4A85424905616FE04F9D17F9FF1FE6
:104C58000349D9B2E31E0BFA9387C18F9C439C4743
:104C6800C5DBCE865286D6852685829755B7F24013
:104C78006244D2444249B249224A924A024B0561EF
:104C88008280011122CC2A84214506CE2EC6EFE06F
:104C98008F8D21C1B245930700FD2300F500C5475C
:104CA8002301F50083C73500A301F50083D745002C
:104CB8002312F50083C765002303F50083C7750039
:104CC800AA85A303F50022856244F24005616FE0DE
:104CD800EF94F240624405618280397162CC2A8C7B
:104CE800594526DA4AD84ED652D456D25AD05ECE34
:104CF80006DE22DCAE8432C636C4BA8B3E8BC28A4C
:104D0800468A8359010403494104EFE0CF8525C948
:104D18003246930700FDA2462300F5009547A301FC
:104D2800C500A30085012301F5002A841946110551
:104D3800A9C2B68597C0FF1FE78060C82306640133
:104D4800230A24012315740123175401231844014D
:104D580023193401A2856254F2504259B259225A99
:104D6800925A025BF24B624C2685D25421616FE065
:104D7800EF8A814597C0FF1FE780E0C7C1B7F250AF
:104D88006254D2544259B259225A925A025BF24B97
:104D9800624C2161828097F7FF1F83C707888DCBFC
:104DA8004111AA8519461385818406C697C0FF1F3D
:104DB800E780E0C09385818417F5FF1F0345E585EB
:104DC800EFF05F8DB2401385818441016FA050627E
:104DD8000145828017F7FF1F034737849307F00FB9
:104DE8006305F708411126C2AA84294522C406C6CC
:104DF800EFD07FF72A8429C1930700FD2300F5002F
:104E0800A1472301F500A300950097F7FF1F93879B
:104E1800A78083C72700938581841105A30FF5FE1A
:104E2800194697C0FF1FE78080B9A28517E5FF1FC5
:104E38000345B57EEFD09FFE17E7FF1F0347E77DC9
:104E48008D47631FF700938701869C4391CB03A38B
:104E58008700630703002244B24092444101028361
:104E6800B240224492444101828017E7FF1F034762
:104E7800C77A8D47631AF700938701869C4389C7D1
:104E880003A38700E31D03FC8280797122D406D630
:104E980026D24AD04ECE52CC094455CD2A89035544
:104EA80005002E8A5144EF60902AAA844DC597F7D1
:104EB800FF1F83C7A78CFD1793F7F70F05474944D2
:104EC800637BF7080347C500A1476314F700631421
:104ED8000A089C5C4544C1E39165938545711305B7
:104EE800C00297D0FF1FE780808B88DCAA894D44D9
:104EF8003DC11306C002814597C0FF1FE780A0AFE0
:104F0800835709009386490036852391F900714635
:104F18009305490036C697C0FF1FE78040AA894716
:104F28002380F90003C5C400B24603560900611581
:104F380097F5FF1F83C5458413351500EF7070443E
:104F48002A8463060A00D2852685EF70202D01C4C5
:104F58002685EFF02FFB2285B25022549254025935
:104F6800F249624A4561828097F7FF1F83C707812C
:104F7800FD1793F7F70F0547637AF708894741CA82
:104F8800011122CC26CA4AC84EC652C406CEAA89E6
:104F9800368AB2842E89EF60901B2A84D14739C99A
:104FA800485509C597D0FF1FE780808CF1452685B5
:104FB80097C0FF1FE78080A648D4CD4705CD83461C
:104FC800C40021478147639FE600630D0A00034739
:104FD800A5010356050193062501AA854E85EF70A4
:104FE800A02BAA8703474400630F090013676700D3
:104FF8002302E400F2406244D2444249B249224AC0
:105008003E850561828013674700DDB7C9473E8545
:1050180082809307100463EBA70097E7FF1F93872D
:10502800A76106053E9503550500828041657D15FB
:105038008280011122CC2A842E8526CA06CEAE840F
:10504800EF60F0101DCDB7470F009387F723094590
:1050580063E4870281450A85414697C0FF1FE780C0
:105068008099A685231081000A854180230181004B
:10507800A3010100EF70B01CF2406244D244056104
:1050880082804945D5BF97E7FF1F2388A76E828096
:105098006F705029797152CC2A8A328522D426D24F
:1050A8004AD04ECE56CA5AC85EC606D662C4AE8B21
:1050B800B28A368BBA843E89C2894684EF60300949
:1050C80015C92A8C63140A0213774B0083474500DD
:1050D80015CF93E727012302FC008DEC631C09021E
:1050E800639A090205E8ED9B2302FC00832B8C03DD
:1050F80063910B08B250225492540259F249624A01
:10510800D24A424BB24B224C45618280F59B93E7D1
:105118000701D1B793E747002302FC0001CC1C48E4
:105128004146A2852324FC0213058C0197C0FF1F6A
:10513800E780E08863930B02D5D80325CC0209C524
:1051480097C0FF1FE780C072F145268597C0FF1FF3
:10515800E780C08C2326AC0251BFE30909F8032578
:10516800CC0209C597C0FF1FE7808070F1454A85CA
:10517800F1BF9DC483A70B0299EB916593853571A7
:10518800714597C0FF1FE780806123A0AB0203A58C
:105198000B0219C57146A68597C0FF1FE7802082BC
:1051A8006388090283A74B0299EB91659385257162
:1051B8005D4597C0FF1FE780805E23A2AB0203A571
:1051C8004B0219C55D46CE8597B0FF1FE780207F4B
:1051D8001DC483A78B0299EB916593851571514581
:1051E80097C0FF1FE780A05B23A4AB0203A58B0237
:1051F80019C55146A28597B0FF1FE780407C22540D
:10520800B2509254F249B24B224CCA865A8602597D
:10521800424BD6855285D24A624A45616FF0CFE942
:10522800011126CA52C406CE22CC4AC84EC62A8AC2
:10523800AE84EF60C07125C5AA893945EFD0BFB2E9
:105248002A8431CD17E9FF1F034909426314090075
:1052580003C909009307000D2310F400AD4723018B
:10526800F4009385690013053400194697B0FF1FB1
:10527800E780E07493F71400858085882306F4009E
:10528800A306940023154401A2856244F240D24447
:10529800B249224A4A85424905616FD03FB8F24077
:1052A8006244D2444249B249224A056182800111CE
:1052B8004EC652C456C206CE22CC26CA4AC8AA8AAC
:1052C8002E8AB289EF60A0682DCD2A891305C00205
:1052D800EFD07FA92A8435C597E4FF1F83C4C4385B
:1052E80099E0834409009307000D2310F400E9476F
:1052F8002301F4009305690013053400194697B09B
:10530800FF1FE780C06BD285231554011305C40025
:10531800414697B0FF1FE780806ACE851305C40118
:10532800414697B0FF1FE7808069A2856244F2403A
:105338004249B249224A924A2685D24405616FD031
:10534800FFADF2406244D2444249B249224A924AED
:105358000561828093870185884301CD411106C686
:1053680097C0FF1FE780C050B24023A801844101C5
:1053780082808280011106CE22CC26CA4AC82EC657
:10538800EF60E05C39CDB24517E9FF1F0349C92D2D
:10539800AA840CD563140900034905004145EFD0E0
:1053A8009F9C2A841DCD9307000D2310F500A54767
:1053B8002301F50083C75400938564001105A30FEA
:1053C800F5FE194697B0FF1FE780605F9C54A285E1
:1053D800F2405CC46244D2444A85424905616FD0B8
:1053E800FFA3F2406244D244424905618280797148
:1053F80022D406D62A842EC6EF60605501CDB24568
:105408002285230EB1006C08EF60D05DB2502254A3
:10541800456182805145DDBF6F60006AC1671387AF
:10542800E7FF6394E5029387C1859C4391EB494567
:1054380082804945B2402244924402494101828017
:1054480003A30700E30503FE0283411122C426C219
:105458004AC006C6FD172A892E84B2846395F502D0
:105468009387C1859C4391CB9C4381CB829711E55F
:1054780023882187A388918675BFA6854A85EFE092
:10548800FFDE4DF9F5B72E85EF60604C5DD183479F
:1054980005000D45E39027FB22852244B2400249CE
:1054A800A685924441016FA020729307100463E21D
:1054B800A7064111C16722C406C626C2FD172A8461
:1054C80009456382F502C547AE846313F4022E854D
:1054D800EFA0807617E5FF1F1305051606042A942A
:1054E800231094000145B240224492444101828035
:1054F8009307A0036316F4002E85EFA0606DD9BF53
:105508009307B003E318F4FC13F5F50FEFA0806CD4
:10551800D1B709458280011106CE2AC6EFE03FD7F0
:10552800EF20E023EF108060EF00C17A324597E763
:10553800FF1F9387670E130700F02391E70023826C
:1055480007007D5797E7FF1F938707232381E7000D
:105558002380A700F240954505616F40305259718C
:1055680093970501CAD086D6A2D4A6D2CECED2CCE5
:10557800D6CADAC8DEC6E2C4E6C2EAC06EDEC187B1
:105588002E8963D1075A17E5FF1F0345E51EEFD0A3
:10559800FF818964416A856A797B2A84938BD40068
:1055A8007D1AA50A130CABFF1DE021653345A90040
:1055B800B650265496540659F649664AD64A464B7A
:1055C800B64B264C964C064DF25D6561828083474A
:1055D80004001307200A639DE7000355240097E998
:1055E800FF1F83C999032286D285EFF00F9E59A227
:1055F8001307100997E9FF1F83C929186398E7184B
:105608008347140015476390E7022285EFF06FA0E7
:105618002285EFD08FF217E5FF1F0345E515EFD080
:10562800EFF82A8451B73947639BE71803554400BC
:10563800631B55050C4483CC0500639D0C00850550
:1056480091C9194617E5FF1F130585FE97B0FF1F7F
:10565800E780E03617E7FF1F034707FC8547631716
:10566800F712638A0C0097E7FF1F238707FA6685FE
:10567800EFF08FCD71BF894717E7FF1F230EF7F8AB
:10568800EFA0C05671B793872400631AF506832CE0
:105698008400638D0C0E83C70C008DE383C72C0038
:1056A80003C71C00A207D98F17E7FF1F231AF7F6B5
:1056B80083C73C0017E7FF1FA300F7F617E7FF1F94
:1056C800034787F589476313F70C83C70C0081CB21
:1056D80097E7FF1F238207F403C50C0051BF8D47CE
:1056E80097E5FF1F83C555F317E5FF1F035545F3DE
:1056F80017E7FF1F2302F7F2EF40503BF1BF9387F4
:1057080054006318F5001C4403C50700EFF08FEC44
:1057180001B7B3078501C207C18311476372F70454
:105728009307ABFCAA97139707014183F14763F1ED
:10573800E7029387B4006312F504938781859C433D
:10574800E38807EC9C43A285E38407EC82971DA0BD
:10575800B70700189387F770B3D7E700858BB9CBE5
:10576800938701869C43E38507EA9C43E38207EA23
:1057780022858297E31E05E811A89387C400631069
:10578800F5021C4483C70700E38407E89307F00F7A
:10579800E380F9E8A2854E85EFD04FE8ADBD938749
:1057A800E4006319F5009387C1859C43E38207E60B
:1057B800DC4351BF93871404E301F5F8C1BF3D47AB
:1057C8006397E70403554400E30F75FD938794013D
:1057D800E30BF5FC93873401E31AF5FA97E7FF1F0B
:1057E80083D7E7E3639E47019387C1859C43E381A1
:1057F80007E2DC43E38E07E0A28513853401B9B7DD
:10580800938741869C43E38507E09C43E5B71307EC
:10581800E003E39DE7F68347240005476397E70E17
:1058280083476400938D0185F1E383A70D00D5CBF1
:1058380083CC0700A14903457400130D8400EA8551
:10584800EFE0DFE983474401A303A4008358040180
:105858000358E400035744002A86034534003EC237
:1058680083572401EA86E6853EC0CE87EFF0EFC66F
:105878008347340095E7DD47835804010358E40063
:1058880083467400835544003EC2835724016A87C7
:1058980005463EC06685CE87EF60E03FA301A400C1
:1058A80083A70D0081C71145EFF0DFAA03C5018763
:1058B800E30005D683C51187EFE05F9BE30A05D4B3
:1058C8008346340093071003638AF60003564400A6
:1058D8004E8783C501873685EFE0FFB123880186AF
:1058E80005BB97ECFF1F83CC5CD3A9B793870186D0
:1058F8009C4397ECFF1F83CC5CD291498DDFDC433E
:105908009DDB8145014582973DB729476391E70CA7
:1059180083476400138D0185C1E783270D00A5CF58
:1059280083CC0700A149034574009306840093774C
:105938002500D1C713761500930D4401834704024F
:105948008358C4010358A401035744000345340095
:105958003EC28357E401E6853EC0CE87EFF0EFB73D
:105968008347340095E7DD478358C4010358A401F1
:1059780083467400835544003EC28357E4016E8712
:1059880005463EC06685CE87EF60E030A301A400DF
:1059980083270D0001BF97ECFF1F83CC1CC859B7A4
:1059A800938701869C4397ECFF1F83CC1CC79149C2
:1059B800BDDBDC43ADDB814501458297ADB7B685DC
:1059C80036CEEFE0BFD1F2462A86B68D85BF0947AD
:1059D800639DE700938781859C43E38B07C2DC4383
:1059E800E38807C22285829725B12D476399E7008E
:1059F800938781859C43E38D07C09C47D5B70D47A6
:105A08006397E70022868D4503554400F9BE194780
:105A18006395E7069305610213051031EF00E13342
:105A28002C1013052031EF004133035664008357CF
:105A380081020355440063E8C70083568400035776
:105A4800610263F7E60093050002EFA0E01DC9B606
:105A58006374E6002313E40063F4D7002314F4000E
:105A68000357C4008356A40003568400835564007A
:105A780001488147EFA0001B61BE1D47E388E7D0BE
:105A880031476395E7002286B145BDBF3547639925
:105A9800E700938781859C43E38C07B6DC4789B789
:105AA80039476396E7002285EF00D00395B63D4756
:105AB8006399E700938781859C43E38B07B49C4BEC
:105AC80005B741476396E7002285EF00900C89B639
