:040000006F10006A13
:100004000000000000000000900000208C0200208E
:10001400A9BDF9F544030020000000000000000021
:1000240044030020900000200000000000000000B5
:10003400900000200000000090000020000000005C
:1000440090000020900000209000002090000020EC
:1000540090000020CC15002090000020000000003B
:1000640090000020900000209000002090000020CC
:10007400AA0300209000002090000020900000209F
:1000840090000020900000209000002090000020AC
:1000940001A0011113078008F337078093F787083D
:1000A4003EC201000100B71700409305700523808C
:1000B400B704130680FA2380C7040100010083C635
:1000C400B70493F6F60DA385D7042380070492465C
:1000D400F3A606800100010093760502D5CEF3361F
:1000E400078093F6860836C4010001002380B70414
:1000F4002380C70401000100B70614007D89558DD3
:1001040088C7010001000100010023800704A24602
:10011400F3A6068001000100733707801377870870
:100124003AC6010001002380B7042380C7040100FC
:100134000100010001003727004093061005A303C6
:10014400D78023800704B247F3A70780010001008A
:1001540093078008F3B7078093F787083ECE010022
:100164000100B7170040130770052380E704130745
:1001740080FA2380E7040100010003C7B704136772
:100184000708A385E70423800704F247F3A7078041
:10019400010001000561828093760504BDC6F33633
:1001A400078093F6860836C8010001002380B7044F
:1001B4002380C70401000100B706140093860604D7
:1001C4007D89558D88C7010001000100010023804D
:1001D4000704C246F3A606800100010073370780B6
:1001E400137787083ACA010001002380B7042380EB
:1001F400C704010001003727004093062005A3032C
:10020400D78023800704D24781B7733707801377D9
:1002140087083ACC010001002380B7042380C70477
:100224000100010098471367070C98C7238007044F
:10023400E24719BF0111814601468145114506CEA9
:10024400992493078008F3B7078093F787083EC67D
:1002540001000100B7170040130770052380E7046D
:10026400130780FA2380E7040100010003C7670431
:10027400136717002383E70423800704B247F3A717
:10028400078001000100F24005618280411181462E
:10029400014681451145C52A13078008F3370780B5
:1002A40093F787083EC401000100B7170040130606
:1002B40070052380C704930680FA2380D7040100C5
:1002C4000100FD552396B70223800704A245F3A538
:1002D40005800100010073370780137787083AC649
:1002E400010001002380C7042380D704010001001A
:1002F40003C76704136717002383E70423800704F5
:10030400B247F3A707800100010001A0BD473305F0
:10031400F50201007D1575FD8280411122C426C2BB
:1003240006C6AA84014463179400B240224492444E
:100334004101828005041305803E4204C13F41808F
:10034400DDB700009305000273A0458082457390D9
:10035400153492402242B2424243D2436244F244B0
:10036400025592552256B2564257D2576258F25805
:1003740006499649264AB64A464BD64B664CF64C35
:10038400065D965D265EB65E465FD65F09617300C4
:1003940020304111B7170040985F3AC6945F324746
:1003A400E39CE6FE324541018280B7170040130703
:1003B40000032388E702854723A0F18473002030DB
:1003C400411106C6EF00E077F5BF2303048015470B
:1003D4002303E48001002302A480828083076480D5
:1003E400E3CE07FE23030480828083076480E3CE88
:1003F40007FE03454480828083076480E3CE07FEC2
:100404002302A4808280411126C44AC24EC006C67B
:100414001377F50BAD47AA892E8995446306F70037
:1004240019456537653F8D444E854537FD59FD14A3
:1004340063983401B240A244124982494101828046
:10044400135509011375F50F453F2209CDB7011165
:1004540026CC06CEB704080051371545BD37713791
:1004640069372AC6A53F32459377150089EB136592
:1004740015001375F50FF240E24405618280FD1406
:10048400E9FC0145CDBF397126DC4ADA4ED852D693
:1004940056D45AD25ED006DE62CE66CCB7E700E010
:1004A4007D5783AA070022C603AA470023A0E718A2
:1004B40023A2E718B7170040130770052380E70449
:1004C400130780FA2380E70483C74704930B75FF5F
:1004D400B684E20793FBFB0F8546AA892E8B3289EB
:1004E40037240040E187015763FA76016308D50099
:1004F4008946130700026313D5000157D98F93F778
:10050400F70FB71C00402382FC0411472303E48047
:100514001305F00F5D3D094CD135636D7C11B705B2
:100524000700DA9537870700795563F2E504B38746
:100534009500636EF702370B0800A94733EB65019A
:100544006399F90689E48144513D26850DA0DA8535
:100554000945553D05090345F9FFFD14050B693DA2
:1005640081C49377FB0FFDF7DD3569FD7D55B71722
:100574000040130770052380E704130780FA2380E3
:10058400E70403C74704418B2382E704F250B7E72B
:1005940000E023A0571123A24711E25432445259D8
:1005A400C259325AA25A125B825B724CE24C2161EC
:1005B4008280A5476395F90685691309F00FB30690
:1005C4009900B3742B01B6941349F9FFB3749900DD
:1005D400856B33796901416B9387F9FFB3F7270181
:1005E40099E363FC340193D94900C147E3E637FF3B
:1005F40099BF0569C1697D19D9B71305800D638851
:100604006901130500026384790113051008CA8582
:10061400DD3B353D21DD4E99B3843441D9B7DA85CC
:100624002D45D533CA94E30099F205097D3BA30F08
:10063400A9FED5BF9387F9FF93F7F70F6361FC0C0D
:1006440083C71C0413073008631FF7043707080027
:10065400636BEB04B3079B00B706100063F5D70484
:10066400334BEB0089476393F9068980D549E38CC2
:1006740004ECDA850945413B11090327C9FF914779
:100684002320E48003076480E34E07FE23033481C0
:10069400FD17EDFBFD14110B81C49377FB0FE9FFEC
:1006A4007D3371F5E1B5B717004003C75704B707A9
:1006B40008001377070219E3B78707007955E37831
:1006C400FBEA33079B00E3FFE7F855B58547E38270
:1006D400F9F2DA852D45053B9389F4FFE38504E6B9
:1006E400293393F7390091EB83260480032709000B
:1006F40093074900E39AE6E43E89CE84F1BFB54707
:100704006396F9001305900BC93135BDB147130544
:10071400B00AE38BF9FE99476391F904B705080021
:10072400B365BB002D45C53181448D4BA149753955
:1007340063967401832704802320F9008504E398D9
:1007440034FF8327048013172B01635507002312FA
:10075400F900D5BB2322F900FDB39D476399F90243
:1007640081451305B0044531BD44232009002322EB
:100774000900FD599D3993F77400CA9703C7070010
:10078400FD14398D2380A700E39634FF6DBBA14788
:100794006392F9046D398144630D0B008D47930412
:1007A400C0036308FB009304000563048B019304F6
:1007B40040041375C507E30895D81945393139390B
:1007C4000545213126850D3909453D314931E31C63
:1007D40005D669BB91476399F90013056006F536A0
:1007E400F53E130590090DB7E38F09D4F154A9BB65
:1007F400B7C7004003A7C72023A607200F10000097
:1008040001C599C1814711E6B7C7004023A6E72077
:100814008280B386F50003C80600B306F500850799
:1008240023800601E317F6FEC5B737C700408327C8
:10083400C720232607200F10000019C191C111E61B
:1008440037C700402326F7208280910503A7C5FF00
:1008540011057D16232EE5FEDDB737C7004083273B
:10086400C720232607200F10000001C53307C50049
:1008740011E637C700402326F72082800505A30F21
:10088400B5FEE31DE5FEF5B7B7C7004083A6C72054
:1008940023A607200F10000081473307F500030744
:1008A400070019E737C700402326D7203E858280FA
:1008B4008507E5B7011126CA4AC8B7C7004006CE66
:1008C40022CC83A4C7202A892E8623A607200F10B2
:1008D4000000131506019305F004418132C6EF00B0
:1008E40090222A8401C53246CA8519372285F240EE
:1008F4006244B7C7004023A697204249D244056109
:100904008280B7C7004003A7C72023A607200F1083
:10091400000001C599C1814711EAB7C7004023A669
:10092400E720054582808507E309F6FE3308F500D4
:10093400B386F5000348080083C60600E305D8FE25
:10094400B7C7004023A6E72001458280B7C700400F
:1009540003A7C72023A607200F1000009307F6FF64
:10096400BE952A966317C500B7C7004023A6E720A3
:100974008280FD1583C715000505A30FF5FEDDB7BD
:1009840037C700408327C720232607200F10000005
:1009940001C53307C50019E637C700402326F720F1
:1009A4000145828005058346F5FFE397B6FEE31B08
:1009B400E5FE37C700402326F7200545828079717C
:1009C400973700009387478022D4804306D626D2E7
:1009D4004AD04ECE52CC56CA5AC85EC679C0B7C4A5
:1009E400C901014B972900009389897D9384F437C9
:1009F400172A0000130A8A7D972A0000938A0A782E
:100A040017390000130909818357240095E35C44D6
:100A1400631D0B00172700002328F77A832BC400DB
:100A24002285EF00301D5E84B9A82326FB00FDB7A4
:100A340083A7090082971C443307F5406376F500C9
:100A4400032749001D8F2A9763E2E40897270000D3
:100A540023AE07728355240003450400972000E069
:100A6400E780401D5C405844A1CB0C440326490058
:100A7400AE97BE8663E4B70063E4C700B386C7409D
:100A840014C4228B3A8449F0972700009387076F98
:100A94009C4B05476372F706FD17172700002327B1
:100AA400F76EB250225492540259F249624AD24A21
:100AB400424BB24B4561828063170B0097270000BD
:100AC40023A4E770A1BF2326EB0089BF03274A02B2
:100AD40009CF63EFA7003385A74083A70A01637694
:100AE400F5009727000023A3A76A228B404461BF27
:100AF40003274900BA97C5B79727000023A80768BA
:100B04004DB797270000938767709C4385C34111B5
:100B140006C682979727000083C7676A89E79727E5
:100B2400000023A5076EB240410182809727000090
:100B340083C7E76891E79727000023A9076C8280A1
:100B44008280411122C4172400001304E4651C4070
:100B540006C626C24AC091C782979727000023A5DC
:100B640007645C4091C382971C40639C071C173741
:100B74000000034717849547973400009384048347
:100B84006301F71C9727000083C787698DE383C738
:100B94005400858B89CF83C774001947631CF70EF3
:100BA40097370000A386078099265C4482971C44EB
:100BB40091C38297172900001309C960032709000C
:100BC400172600000346965B9727000083C7075B40
:100BD40093961700BA9683D60600E9CA97270000B1
:100BE40083C7C75963EEC70C9727000023880758AB
:100BF4001C406398071483C7740015476303F714F4
:100C04009727000083C7177B91CF83C7740093F79E
:100C1400F70F89EB97270000A38E0778970001E070
:100C2400E780806C97270000938787599C43638AE9
:100C34000710972700009387E75DDC431727000020
:100C44002326F754AD3B9727000093872758DC539E
:100C5400EDCB83C7740015476365F70E9727000033
:100C640083C78779918BF1EF9727000083C72755B6
:100C7400E9EB032609009726000083C6365063C8B3
:100C8400D70C2244B240924402494101172300E0A8
:100C94006700835083C774001D47E31AF7F0972752
:100CA4000000A3870770A1241C4809B7850793F7A0
:100CB400F70F972600002383F64CE3E7C7F039BF0C
:100CC40086073E97835507002310070097270000E7
:100CD4002396074E972700009387C74C9C431725FC
:100CE40000000345A54913172500BA979C43829732
:100CF4009727000083D7874C17270000034707482E
:100D040093C7F7FF7D8D93171700032709003E97BC
:100D1400835707005D8D2310A7009727000083C722
:100D2400E74591C78507172700002309F7441727CC
:100D340000000347A7449727000083C73744E3759F
:100D4400F7EAB24022449244024941018280139757
:100D540017003297035707006DF785070DB737C79C
:100D640000408326C720B707FCFFFD17F58F232615
:100D7400F7200F1000009727000093872740C84FE3
:100D8400832787262326D7206A0593C7F7FF9983ED
:100D94005D8D82800111972700009387277122CCF3
:100DA40003A4870B26CA06CE2AC42EC6854419E49A
:100DB4000145F2406244D244056182808347910038
:100DC40003471400858B6304F7000044CDB719462C
:100DD4009305A100130524002D36E31895FE05455F
:100DE400C9BF172700001307A75B1443411122C48E
:100DF4009C5E4AC006C6998326C2858B3A8417290D
:100E040000001309A959D1CB930700069CDE1727CC
:100E140000000347075A93070008972400009384AF
:100E2400E458631BF700832709009C4393F70704E6
:100E340017270000230FF75683C7040093F707040E
:100E44009DC3972700009387A7379C4382979727D2
:100E5400000023A5A75683C7040093F7F70B1727B1
:100E640000002305F75483C7440093F7070495E76C
:100E7400854717270000A30DF75297270000938793
:100E8400A7549C433707020098C7130700FC972612
:100E94000000238FE650D844F8D318401C5F918398
:100EA400858B8DC31C5F93E707011CDF9727000028
:100EB400938787519C4323A2070685471727000081
:100EC4002308F74E83270900D8430583058B19C7E8
:100ED400D843759BD8C3D843799BD8C3B240224426
:100EE4009244024941018280ED3D730020309727EE
:100EF40000009387674D9443972700009387074B1F
:100F040003C70700058B11CB972700002382074AEC
:100F140097270000A38E0748828003C71700058B1C
:100F240065F7F85271FF83C75700DDB71727000034
:100F34001307074703280700832788039583858BB6
:100F4400ADEF11C683270803BD832300F6009DC6B9
:100F54001C43985B4607935767016356070093E762
:100F640007C0C207C18303970600C207C18709C728
:100F7400BA970947B3C7E7022390F6008DCD83459E
:100F8400150095C99727000083C7A74293F7070464
:100F940013879500894585C33A958347050005471E
:100FA400994593F6F7066398E600E207E1878145E1
:100FB40063D30700B9452E8582808545EDBF411175
:100FC40022C406C61724000013040440184049E94B
:100FD400AE877453FDFE3E85B285972700002388B3
:100FE400073C970001E0E7800017972700009387EC
:100FF400273B9C43B70680009843558F98C3D85726
:10100400719BD8D797270000A384073A972700003D
:10101400A38E07381C40094798C3B7F700E003A71D
:1010240007D16D9B23A8E7D003A707D15D9B23A815
:10103400E7D0730050101440172700001307073738
:1010440083472700858B89EB83473700858BC1C392
:1010540097270000238E0734B24022444101828046
:101064008D476310F50297270000938767339C43ED
:10107400B70680009843558F98C3D857719BD8D72B
:101084005DBF8547E319F5FA54478177FD17F58F5E
:101094005CC70F1000001840B70702001CC7930775
:1010A40000F8172600002305F630972700009387E1
:1010B400272F9C439C439D83858B6397A7009307AD
:1010C40060197CD354C785BF9307E01BDDBFFC5276
:1010D400A5FB59B7411122C4172400001304C42EE0
:1010E4001C4006C6D8479316D70063D60602984715
:1010F4009316D70063D106027D57B8D7172700008F
:101104001307C707584F05079726000023A6E608CC
:101114003707040098C798470D83058B1DC317270D
:1011240000000347C7281367170097260000238091
:10113400E628130700F897260000238BE6262147AC
:1011440098C79847058B09CF172700000347172630
:101154001367170097260000A38AE624054798C75B
:1011640098470983058B09E798470583058B31C3A5
:1011740017270000A30E072298479726000093869E
:10118400E6220983058B6302071003C70600136771
:10119400170097260000238BE620114798C71727CE
:1011A40000001307E71F1443D856719B13671700F9
:1011B400D8D698479316F70063D606029726000000
:1011C40083C60636C18A172700001307272EE1CAF3
:1011D4000347470713670702972600002382E63474
:1011E400416798C798479316E70063D2060217270A
:1011F40000000347E71B6207618763570700054741
:10120400972600002386E61A3707020098C79847F6
:101214009316C70063D706029726000083C656308C
:10122400858A1727000013076728C1CA0347570791
:101234001367270097260000A384E62E37070800CB
:1012440098C798479316B70063DD06023707100066
:1012540098C79727000083C7A7FC85C717270000F6
:10126400034737159547630EF700972700009387C8
:1012740067129C4391C382971840B7071F00BD07AC
:101284005CC7B24022444101828003C73600136721
:10129400170097260000A38CE610094701B7834680
:1012A40047070946BD8A6388C600034747078D463A
:1012B4003D8BE317D7F2114705B783465707918A49
:1012C400B5DE0347570713678700ADB797270000BC
:1012D4009387870F98438967938707F47CD397276D
:1012E40000009387A7139C4383A60709139656000F
:1012F4006358060083A60709139666006344060034
:101304007453FDF28280411122C4B7C7004006C65F
:1013140003A4C72023A607200F10000011C199E5DC
:10132400B7C7004023A6872001457DA89307350051
:10133400C207C183F19BC207C183130740036369DA
:10134400F702172700001307271608431727000082
:101354001307071514436392A60217270000130707
:10136400E7E6185B55DFC207DD8D054502974DBFE3
:101374001727000013070713C9BF035765002DEB98
:10138400035745006366F706B306F7402146637CBE
:10139400D60203280500938687001D8FAA9661173D
:1013A400172600000356E6DD2392E60023A006017B
:1013B4002393060014C12312F500130786FF972612
:1013C40000002390E6DC2313B5009725000083D5A5
:1013D40045DBB387F540172700002314F7DAB7C7B6
:1013E400004023A687202105B24022444101828087
:1013F400084195B7B7C7004003A8C72023A6072014
:101404000F10000001E523A6072182809727000022
:101414009387870903AE070097270000938747083F
:1014240003A307008146F28763F0670C83A80700D3
:10143400636FF50A63EDA80A138787006366E50AFC
:1014440003D66700216705076317E60003C7C18B4E
:101454000507238EE18A97250000938525D203D6BC
:10146400470003D76500239307003297420741835F
:10147400172500002317E5D0638AC703172500004A
:101484001305450208416303F50203D5660019ED0F
:1014940083D7460023A0160121073E9621062392F6
:1014A400C60097270000239EE7CCB6879843630DB8
:1014B4006702972600009386E6FE94426306D702ED
:1014C4008356670095E283D64700035647001843C6
:1014D400A106B2962392D70098C383D76500A107CB
:1014E40017270000231FF7C8B7C7004029BFBE86CF
:1014F400C6871DBF011197270000938727FB22CCC5
:1015040003A4070C26CA4AC84EC606CEAA841309E9
:101514002500854915C083C7140003473400858B13
:101524006304F700405CFDB71946930544004A85FF
:10153400EFF02FBDE31835FF2285F2406244D24418
:101544004249B2490561828041119727000093877F
:10155400E7F522C403A4070C26C24AC006C69304B6
:101564002500054901E82285B240224492440249FB
:1015740041018280A6851305A40297B001E0E780AB
:10158400E0D6E30225FF405CF1BF4111972700003C
:101594009387C7F122C403A4070C26C24AC006C617
:1015A40093042500054901E82285B240224492446F
:1015B400024941018280A6851305A40197B001E088
:1015C400E780C0D2E30225FF405CF1BF197106C277
:1015D40012C416C61AC81ECA22CC26CE2AD02ED2AF
:1015E40032D436D63AD83EDA42DC46DECAC0CEC25F
:1015F400D2C4D6C6DAC8DECAE2CCE6CEEAD0EED28F
:10160400F2D4F6D6FAD8FEDA938581838841E700CE
:10161400050092402242B2424243D2436244F24421
:10162400025592552256B2564257D2576258F25832
:1016340006499649264AB64A464BD64B664CF64C62
:10164400065D965D265EB65E465FD65F09617300F1
:1016540020300000EFF0EFCA73000000000000002B
:10166400972200009382A2B5038302002380020024
:10167400630F0300F32510342EC0970500009385F3
:10168400A5FD73901534EFF0FFA47300203086DCC1
:0C169400EFF05FA4E65082800000000030
:1016A0009711002093810196175100201301811595
:1016B0001305400097F5FF1F9385C594170600207A
:1016C000130606FE63FAC5008322050023A0550019
:1016D00011059105E3EAC5FE17D50100130545E79D
:1016E000970500209385C5FB1386818363FAC500A7
:1016F0008322050023A0550011059105E3EAC5FEEC
:101700001385818397250020938505ED6377B500C8
:10171000232005001105E36DB5FEFD42739002BC68
:101720008D4273904280930280087390023097F24A
:10173000FF1F9382228D93E23200739052309712F2
:1017400000009382620073901234730020303D4396
:101750002A876373C3029377F700BDEFADE59376F5
:1017600006FF3D8ABA960CC34CC30CC74CC7410751
:10177000E36BD7FE11E28280B306C3408A0697026C
:10178000000096966780A6002307B700A306B7005F
:101790002306B700A305B7002305B700A304B700CD
:1017A0002304B700A303B7002303B700A302B700C5
:1017B0002302B700A301B7002301B700A300B700BD
:1017C0002300B700828093F5F50F93968500D58DA1
:1017D00093960501D58D61B7939627009702000077
:1017E00096968682E78086FA9680C1171D8F3E9670
:1017F000E374C3F8A5B7B717004003C7770513779D
:10180000E70FA38BE704130700F8A38DE7043D4718
:10181000238CE70413075003A38CE70403C7A70531
:101820001377D70F238DE7048280B717004003C7D3
:10183000E7020D8941111377C70F498F930680087E
:10184000F3B6068093F6860836C6010001009306BB
:1018500070052380D704930680FA2380D704010003
:1018600001002387E70223800704B247F3A707801C
:10187000010001004101828041112A83014E930E33
:10188000407E130F0019930F400663E56E12930814
:10189000001913034006B3781503854E0D4FA14F71
:1018A000337365020D891335150063EFBE121308FB
:1018B000F6FF794672984208135808013307C702A9
:1018C00013D61700BE0732976146B3F6C602130659
:1018D0008070B386C6023697A166F58F42075D8F8A
:1018E000B716004083C7F60293F70708A303F10079
:1018F0000346710083C7F60293F70708E394C7FE17
:1019000083477100B716004093F7F70F63880712FB
:1019100093078008F3B7078093F787083EC4010058
:101920000100B7170040930670052380D704930683
:1019300080FA2380D7040100010023AA070383C68D
:10194000170393E60608A388D70223800704A2475B
:10195000F3A70780010001001166B71700407D164C
:10196000D45BC85F93854703A98EF18EF5FA930681
:101970008008F3B6068093F6860836C6010001009B
:10198000930670052380D704930680FA2380D7043A
:101990000100010098C103C7170313670704A38858
:1019A000E70223800704B247F3A707800100010084
:1019B000410182807D133368E3039308E016630ED0
:1019C00008003368F3039308D0166308080093787F
:1019D000330093B818009388D81633081E01131EDD
:1019E0000801135E0E0155B56393E5030548638650
:1019F00008000148630303002A8871087298FD15E6
:101A0000131E0801C205135E0E01C18179BD13F8D2
:101A1000150063F4BF007908D5B713381800E5BF87
:101A200083C7F60293F70708A303F100034671008A
:101A300083C7F60293F70708E394C7FE8347710054
:101A400093F7F70FF1DFE9B54111B7170040985F41
:101A50003AC6945F3247E39CE6FE324541018280FC
:101A6000757126C3CEDEE2D406C722C54AC1D2DCD8
:101A7000D6DADAD8DED6E6D2EAD0EECE2A8CE52562
:101A8000AA8993048008F3B7048093F787083ECAB5
:101A90000100010037140040130A700523004405BB
:101AA000130980FA23002405010001008347F40292
:101AB00093F7770FA307F4028347F40293E78700B5
:101AC000A307F40223000404D247F3A70780010010
:101AD00001000545993BF3B4048093F4840826CCB7
:101AE000010001002300440523002405010001003A
:101AF0008347340593F7870FA309F404834734051C
:101B000093E71700A309F40423000404E247F3A7B2
:101B1000078001000100130980C133C92903130A9A
:101B20005002930A803E2167130707D0130BA004CD
:101B3000916B938C0BE8814D93040404130D80FA90
:101B4000FD1B33094903B3CA5903B347E90213091B
:101B50007005338A4A033EC0B347EA02130A80087D
:101B6000338B6A033EC2BD67938707A6B347FB0268
:101B7000116BB3CC99033EC4F3370A8093F78708FF
:101B80003ECE01000100930770052380F4002380FE
:101B9000A4010100010083473405216793E7070290
:101BA000A309F40483570405B3E767012318F40479
:101BB00083570405D98F2318F40423800400F247C7
:101BC000F3A70780010001008347340593F707025C
:101BD000638C07100347340593073405218B7DDBA5
:101BE00073370A80137787083AD2010001002380F7
:101BF00024012380A4010100010003C7070013771B
:101C0000F70D2380E70003C707001367070223804F
:101C1000E700835704052167B3E767012318F4043D
:101C200083570405D98F2318F404238004009257A6
:101C3000F3A70780010001008347340593F70702EB
:101C4000F9CB83473405A18BEDFFFD3BAA873EC648
:101C5000E53BB247E30DF5FE83570405B3E76701A3
:101C60002318F40483473405A18BEDDF03570405E3
:101C70008347240533F7EB00B387FB023E97824787
:101C80003307974163D5E7009247634DF70A8947C9
:101C900063ECB70BA246850D9317170093FDFD0F5C
:101CA000B3C7D702635AE03685070947B3C7E702CF
:101CB00073370A80137787083AD601000100238022
:101CC00024012380A401010001000357C402BA9734
:101CD000C207C1832316F40223800400B257F3A77E
:101CE00007800100010049BDF3370A8093F7870898
:101CF0003ED001000100238024012380A4010100C3
:101D000001008347340593E70702A309F404238005
:101D10000400825775B5F3370A8093F787083ED4DD
:101D200001000100238024012380A401010001009F
:101D30008347340593E70702A309F40423800400D2
:101D4000A257FDB5E3880DF493078008F3B7078029
:101D500093F787083ED801000100B717004013072A
:101D600070052380E704130780FA2380E70401004D
:101D7000010003C737051376FC0F1377870FA3897C
:101D8000E70403C73705518FA389E70423800704BD
:101D9000C257F3A7078001000100B7170040930561
:101DA000800813057005130880FA03C7370593866A
:101DB00037051D8B63148727130780087337078047
:101DC000137787083ADC01000100130770052380B0
:101DD000E704130780FA2380E7040100010003C72A
:101DE00006001377F70D2380E60003C7060013678C
:101DF00007022380E60003D707059166558F2398D5
:101E0000E70403D70705A166558F2398E7042380CD
:101E10000704E257F3A7078001000100B71700404D
:101E20009306800813067005930580FA03C73705EB
:101E300013770702630E0720B717004003C7370563
:101E400093863705218B7DDB130780087337078066
:101E500013778708BAC001000100130770052380BB
:101E6000E704130780FA2380E7040100010003C799
:101E700006001377F70D2380E60003C706001367FB
:101E800007022380E60003D707059166558F239844
:101E9000E70403D70705A166558F2398E70423803D
:101EA00007048647F3A7078001000100B717004029
:101EB0009306800813067005930580FA03C737055B
:101EC000137707026301071C371700408347370564
:101ED000A18BEDFF953E2A84853EE30F85FE3717E3
:101EE0000040835707059166D58F2318F704B7176D
:101EF000004003C7370593863705218B7DDB130729
:101F000080087337078013778708BAC4010001007F
:101F1000130770052380E704130780FA2380E70482
:101F20000100010003C706001377F70D2380E600C8
:101F3000238007042647732707800100010003D789
:101F4000070583C627059167FD177D8FB387D702E5
:101F5000B7460F0093860624B3C9D9023E9785671A
:101F6000938707FAB3978701B38937039307001064
:101F7000B3C9F9029307800C8E09B30937410547AD
:101F8000331C8701135C3C40B30A5C03130C60559F
:101F90003D67130707A6B38A8A03B3CAEA02B38769
:101FA000F902B3C75703635B301185070947B3C70D
:101FB000E7021307800896077337078013778708AF
:101FC000BAC60100010037170040930670052300D0
:101FD000D704930680FA2300D7040100010083563A
:101FE000C702B697C207C1832316F702230007046E
:101FF000B647F3A7078001000100BA402A449A447B
:102000000A49F659665AD65A465BB65B265C965C18
:10201000065DF64D49618280FD1741B973B70580B1
:10202000137787083ADA010001002380A704238090
:1020300007050100010003C73705518FA389E70495
:102040002380070452577327078001000100B1BBAA
:1020500073B70680137787083ADE010001002380FA
:10206000C7042380B7040100010003C737051367C5
:102070000702A389E70423800704725773270780A8
:102080000100010065B373B7068013778708BAC2F1
:10209000010001002380C7042380B7040100010070
:1020A00003C7370513670702A389E70423800704E2
:1020B0001647732707800100010009B5FD17FDB51C
:1020C000914763EEB70217C70100130727D48A05AB
:1020D000BA959C41BA978287B717004003A7470B70
:1020E0001345F5FF698F23AAE70A03A7070B698F3A
:1020F00023A8E70A03A7070A798D23A0A70A8280ED
:10210000B717004083A6470B1347F5FFF98E23AAA4
:10211000D70A83A6070B558D23A8A70A83A6070A0B
:10212000758F23A0E70A8280B717004003A7470BEB
:10213000498F23AAE70A03A7070B1345F5FF45BFFD
:10214000B717004083A6470B1347F5FF758F23AAE7
:10215000E70A03A7070A598D4DB7B717004003A731
:10216000470B498FEDB7B7170040884742054181BB
:102170009377050491EB9377F5013755E801130543
:1021800005803345F50282809377050C1307000420
:102190006397E7009377F50137459C1CCDB7216520
:1021A000130505D08280B7F700E08847CC478280CE
:1021B000814737370040A14663C4C700328582801B
:1021C0000345B740E38EA6FE3385F50003450500C1
:1021D00085072304A740CDB7411122C406C62A842F
:1021E00059372947B307E502B2408D83B3D7870239
:1021F00022449507B3D7E70237370040C207C183AF
:102200002316F740410182807165411113050520B5
:1022100006C6D937B7370040130770F82381E74067
:102220000D47A381E74013070004A380E74005475B
:102230002387E740B2404101828011456FF05F8201
:10224000411193962500AA852D4506C697E0FF1FEC
:10225000E780A023B240014541018280411126C29E
:102260009394250022C44AC02A843289A686AA856E
:102270000146254506C697E0FF1FE7800021A68698
:102280004A86A285294597E0FF1FE7800020B240DB
:10229000224492440249014541018280011122CC2D
:1022A00006CE3714004026CA4AC84EC652C48344DC
:1022B0007405034AB4058349840503499405EFF086
:1022C0008FD38347A40593F4F40F137AFA0F93E79F
:1022D0001700230DF40493F9F90F1379F90FB717C9
:1022E000004003C7A705058B6DFF03D5C705A38D68
:1022F0004705238C3705A38C2705A38B9704F24051
:102300006244D2444249B249224A05618280411165
:102310009397050122C406C6C1872E8463DB07009C
:10232000812311C159212165218DB24022444101EF
:10233000828093F7150013C51500E5FB93972501DF
:1023400063D00702EFF0605CCD3D37F60200130664
:1023500006E0896503C5C183EF0070240965E9B70C
:10236000939715010145E3D207FC17C5010013053A
:10237000A5AFEFA0111013060064916503C5C183DA
:10238000EF00F02111654DB71D71494697C5010059
:10239000938505A917C50100130545CF86CE97E0A3
:1023A000FF1FE780405601E917C50100130585A806
:1023B000EFA0310C01A0B7F600E0795798CAFD579D
:1023C000DCCA0567B7E700E023A0E7101306F002B8
:1023D00090C223A0E7180100010017F7FF1F1307A1
:1023E000672823ACE1824157A38AE7401306C00364
:1023F0008145480897E0FF1FE780604697F7FF1F79
:102400009387C7523ECA896793870780231CF100D0
:10241000A167938707E03ECEB707010593870710B2
:102420003ED0ED472312F10285472303F1029707BF
:102430000000938727E1BEC497070000938747E217
:10244000BEC685679387B7D32314F10297070000B0
:102450009387A7D53EDAB7F5070097070000938763
:1024600027E43EDE814697070000938747DD700032
:10247000E1051945BEC097E0FF1FE780000158083D
:102480008147994670003E9603460600850705077A
:10249000A30BC700E398D7FED24791C7035781012A
:1024A00085676373F70001A04808EF00307DAA85B7
:1024B00001C917C5010013052599EFA0E16901A025
:1024C000F64025618280411117050000130565E47F
:1024D00006C622C4EF00D0761384C1832300A40073
:1024E0002928034504002244B24037F602001306AF
:1024F00006E0896541016F00900A797106D61307DD
:102500008008F337078093F787083EC40100010075
:10251000B7170040930570052380B704130680FAAF
:102520002380C7040100010083C6F70293F6A60FBB
:10253000A387D70223800704A246F3A606800100E2
:10254000010073370780137787083AC6010001003E
:102550002380B7042380C7040100010003C7F702EA
:1025600013672700A387E70223800704B247F3A776
:102570000780010001000545EFF02FAB7D39814751
:1025800001478146054685451305407EEFF0CFAEF5
:1025900008084146814597E0FF1FE780402CB707B8
:1025A000C0A83ECAB787E803938707D03ECC080887
:1025B00097E7FF1F938727DE3EC8EF10C019B25080
:1025C0004561828089476305F50263E6A700854778
:1025D000630AF50082808D476301F5029947630322
:1025E000F502828017C50100130545886FA0616858
:1025F00017C5010013058588D5BF17C50100130550
:10260000E588EDB717C501001305058AC5B7411167
:102610009397050122C406C6C1872E8463DD070097
:1026200003C54184352C11C149222165218DB24059
:1026300022444101828093F7150091CB17F5FF1FCB
:102640001305451CEF30010F13451400CDB793F768
:1026500025000145E9DF97F7FF1F83C7F7058D4682
:1026600005476385D700850713F7F70F97F7FF1F17
:10267000A384E70497F7FF1F83C7D70303C54184EB
:102680009DE78547056617F7FF1FA305F7021306A9
:10269000062C8945292797F6FF1F93866600694611
:1026A00085450145EF40B0021345240049B7056652
:1026B00097F7FF1FA380070013060696D9BF0111E5
:1026C000170500001305E5F406CE22CCEF005057A5
:1026D0001384418485472300A4002307F1001306D7
:1026E000E1008D47854513055030A307F100EF4009
:1026F000D1511306F100854513058030EF40F150AC
:1027000017F6FF1F1306C6F9E94513056030EF40C1
:10271000D14F9305000A0D45EF20901E9305000A46
:102720001145EF20F01D03450400854511230345A5
:10273000040005661306062C89459525F24062447F
:102740000561828041111305800406C697E0FF1FD2
:10275000E7806094371700408327870A8D4513056B
:10276000002093E707202324F70A993A713C17C504
:1027700001001305A591EFA0C14F3931A933EF40F6
:10278000B17A353F97E0FF1FE780C0C323AC05FE59
:102790001C4191E7010001000CC18280BA8703A7A8
:1027A00087FF6DFF23ACB7FE8280411122C426C291
:1027B00037C4004006C68324C420232604200F10FB
:1027C000000009E9232694201545B2402244924492
:1027D000410182800347E5FF9307F00F6306F7008E
:1027E000232694201145D5B797F0FF1FE780C0C07E
:1027F000014523269420D1BF411126C24AC0B7C447
:10280000004006C622C403A9C42023A604200F103A
:10281000000009E923A62421B2402244924402493F
:10282000410182809565938505D0C98D2A84210553
:10283000C2054205C181418197F0FF1FE780E0ACEE
:1028400001CDFD5723200500231285002303F50049
:1028500023A624212105C9B723A6242101456DBF44
:10286000411126C2B7C7004006C622C483A4C720B0
:1028700023A607200F100000971700209387C78F0B
:10288000904301440147B28791E711E8A165EF0049
:10289000007A35A083C6E7FF639DA60221C0832688
:1028A00084FF631FC402171700202327D78C7D578E
:1028B000232C04FE230FE4FEF1DBA165952E228577
:1028C000B2402244B7C7004023A69720924441015A
:1028D000828011E03E8783A787FF7DB73E84E5BFF6
:1028E000232CD7FEE9B7411126C24AC0B7C4004025
:1028F00006C622C403A9C42023A604200F1000008A
:1029000089E523A62421154515A02A8497170020C0
:1029100083C7D7862E856375F400894763EE8700E9
:102920006935B7C7004023A627210D45B240224490
:10293000924402494101828083A785FF99E703C73A
:10294000E5FF9307F00F6308F7008535B7C7004030
:1029500023A627214DBF238F85FE171500201305C1
:10296000A5812D35A1652285E124014523A62421D9
:1029700075BF9717002023A107808280971700203A
:10298000938787849C4399E33E85828003D7270001
:102990006316B70003C70700E308A7FEDC47E5B7E7
:1029A000C9C1797122D406D626D24AD04ECE01446E
:1029B0004147B3D78540858BA5C312053147229582
:1029C0003305E502971700209387078403A90700C2
:1029D0008544B3948400C204C180BE892A99032728
:1029E000090011C7032549002EC60297B245314799
:1029F0003304E40283A709003E941C4489E72320A2
:102A0000090023220900B2502254A58D0259925484
:102A1000F2492E85456182800504E31CE4F8814477
:102A2000DDB72E85828041111397050122C406C6A9
:102A300026C24AC041872E84635E0700153511C146
:102A4000AD33A1673D8C2285B240224492440249B5
:102A500041018280EDD9AA8701474146B356E4403F
:102A6000858A8DCE9207BA97B146B387D70297066B
:102A700000209386667903A906008544B394E40098
:102A8000C204C1803E99832709000325490082972B
:102A90002320090023220900258C75B70507E31FB1
:102AA000C7FA8144D5BF411126C2B7C7004006C648
:102AB00022C483A4C72023A607200F100000970775
:102AC00000209387A7709C531384818099C78297B5
:102AD0001C403E9523A4A18039A09707002093872E
:102AE000276E9C43EDF71C40374703001307D73F81
:102AF000B387E70237A72600130737ECB240BA972F
:102B000023A4F180B7C7004023A6972008402244A1
:102B1000924441018280797126D2B7C7004006D61F
:102B200022D44AD04ECE52CC56CA5AC85EC662C4CF
:102B300083A4C72023A607200F10000005E123A6C9
:102B400097200945B250225492540259F249624AE0
:102B5000D24A424BB24B224C4561828097070020FB
:102B6000938707669C43BA8A368AB28B2E8BAA89D2
:102B70008297970700209387276998433E890144ED
:102B8000B146C147330CD40233068701104241EAF3
:102B9000C165938505F0414597E0FF1FE780E0762A
:102BA00005E197070020938767629C5B81C7814599
:102BB00011458297B7C7004023A697202D4559B7E6
:102BC0009707002093874760984331E797070020D5
:102BD00023ACA75E230005008327090005473317B0
:102BE000870023260500232475012311E5002322F5
:102BF0005501E29723A0370123A2670123A45701BF
:102C000063040A0023008A00B7C7004023A6972068
:102C100001450DBF3E875C47F5FF48C765BF05040A
:102C2000E312F4F6B7C7004023A69720214519BF49
:102C3000B7C7004083A6C72023A607200F100000B7
:102C400017070020034797536373E5021706002018
:102C5000130646571317150008423A950357050007
:102C6000D98D2310B50023A6D7200145828023A645
:102C7000D7200D458280B7C7004083A6C72023A672
:102C800007200F100000170700200347374F637518
:102C9000E502170600201306E65213171500084236
:102CA00093C5F5FF3A9503570500F98D2310B5003C
:102CB00023A6D7200145828023A6D7200D458280F8
:102CC000011126CA37C7004006CE22CC4AC84EC6DC
:102CD00052C48324C720232607200F1000001307A7
:102CE00005FF1377F70FFD4763E5E70AB146B30623
:102CF000D5029707002093872751984336971C43A6
:102D0000C9CB135A450005443D893315A40013145B
:102D1000050141802E895285A2858D31AA8929CD50
:102D2000A2855285893F97070020938767499C4376
:102D300082979707002083D7674E338727032A841B
:102D4000814613060064B3B7270313050732B33572
:102D5000E500BE95EF90D126B307850097060020C9
:102D60009386464B3E87D44263E4A70063E4D700D2
:102D70003387D74023A4E900B7C7004023A6972094
:102D80000145F2406244D2444249B249224A0561B7
:102D90008280B7C7004023A697200945DDB7797127
:102DA00026D24ECEB7C4004006D622D44AD052CC4A
:102DB00056CA5AC85EC683A9C42023A604200F1091
:102DC00000009707002083C7773B637AF5009707D9
:102DD00000209387E73E83AB070063970B00B7C7DC
:102DE000004023A63721A9A0170B0020130B8B420C
:102DF000832A4B00B74736FE938707C82E8A97056C
:102E0000002083D5A541BE9AB387C5022A843289A2
:102E10008146B3B5C50213850732B337F5001306F3
:102E20000064BE95EF90D11963F0AA0223A6342165
:102E30000145B250225492540259F249624AD24A90
:102E4000424BB24B45618280829B9705002083D51F
:102E5000E53CB3872503AA84130600648146B3B515
:102E6000250313850732B337F500BE95EF90511552
:102E7000B3079500BE8403274B0063E4A70063E417
:102E8000E700B384E740D2852285CD3C01C904C563
:102E9000B7C7004023A63721054561BF936504F0FD
:102EA000C205C181414597E0FF1FE780004619E94F
:102EB00097070020938787319C5B95D3A2851145A6
:102EC000829731BF97070020938707309C439DE38B
:102ED0009707002023AAA72E85472326050004C5AF
:102EE0002311450123008500A300F50023220500DE
:102EF00045B7BA87D84775FFC8C7F9BF79714ECEB5
:102F0000B7C7004006D622D426D24AD052CC56CAE1
:102F10005AC85EC662C466C26AC083A9C72023A617
:102F200007200F10000035C141443689B28A2E8A2D
:102F3000AA84B14C170B0020130B0B2D054D130C5D
:102F40000003B30B940303270B005E971C43B9EFF8
:102F50009375F400B315BD0013554440C205568661
:102F6000C1811375F50F253D31C183270B00DE9715
:102F700084C323A247016304090023008900B7C763
:102F8000004023A63721014521A023A6372109456A
:102F9000B250225492540259F249624AD24A424BE8
:102FA000B24B224C924C024D456182800504E31ADB
:102FB00084F9B7C7004023A637212145D1BF0111AD
:102FC00022CC26CA4AC84EC6B7C7004006CE03A9BF
:102FD000C7202A84AE89B28423A607200F100000E0
:102FE0007D3B2285CE85593A2A8405C59705002068
:102FF00083D5C522B3879502130600648146B3B515
:10300000950213850732B337F500BE95EF90417BEB
:1030100048C013351400F2406244B7C7004023A6ED
:103020002721D2444249B2490E050561828001112F
:1030300022CC4AC84EC6B7C7004006CE26CA83A9CE
:10304000C7202A892E8423A607200F100000EFF046
:10305000FF92AA8419C123110500A2854A8521394E
:103060009707002083C78711639B270197070020DC
:1030700083D7C7145D8C9707002023918714B7C7A7
:10308000004023A63721014591E01945F2406244F2
:10309000D2444249B24905618280011126CA4AC818
:1030A000B7C4004006CE22CC4EC603A9C42023A636
:1030B00004200F1000009307F00263E8A704B14753
:1030C0003304F502970900209389091483A70900A6
:1030D000A2979C439DCB9377F5008545B395F5006A
:1030E000C205C1811181A13783A709000145A297BB
:1030F00023A0070023A2070023A62421F240624454
:10310000D2444249B24905618280B7C7004023A634
:1031100027210945E5B7411126C206C622C4B7C713
:10312000004083A4C72023A607200F100000EFF063
:10313000FF8419E90145B2402244B7C7004023A6E5
:103140009720924441018280970700209387470788
:103150009C4300458297970700209387A70B6368DD
:10316000A402D843B74636FE938606C83305A4406A
:103170003697E371E5FC13070064B335E50203D627
:10318000870081463305E502EF9081636DB7D84330
:103190003A94C1BF0111680006CE22CC26CAEFC006
:1031A0005008FD57630BF50AB247DDC397070020AF
:1031B0009387470697040020938444FC9448D8439F
:1031C0003E846387E60297070020938767FF9C434E
:1031D0008297B247984863F3E7003E87B307A7009A
:1031E0003E85544063E4E70063E4D7003385D7406D
:1031F000170400201304841B1C4C81CF9707002068
:103200009387C72194433707CDFF7D179C46F98FDD
:103210009CC611E5970700209387C7FFC84397070F
:1032200000209387A7FADC53829719E51C4C8DC3C5
:10323000EFE0B004EFD0D0591C4C99CB9707002099
:103240009387C71D9843B70633001C47D58F1CC70B
:10325000F2406244D2440561828097040020938446
:10326000E4F1170400201304E4FA94485840970747
:1032700000209387E7F49C436393E60282975440CF
:10328000B74736FE938707C8B6973387A7003A85B6
:103290006364F700E36ED7F43305D74091BF82979C
:1032A00094485840B387A6003E8563E4D700E3E125
:1032B000E7F43385E7402DBF411106C6970700208C
:1032C00023A8A7F40295B2409707002023A4A7ECF7
:1032D000014541018280914763E9B7008A0597075C
:1032E0000020938767ECBE9588C1828097070020F5
:1032F00023AEA7F011C58547170700202301F7EC7F
:103300008280411151468145170500201305C5E90A
:1033100006C69707002023A907EA9707002023A9DC
:1033200007EE9707002023AD07E8970700202388C2
:1033300007E89707002023AB07EC97D0FF1FE78033
:10334000005213068002814517050020130505E38E
:1033500097D0FF1FE780A050EF40C146970700209D
:1033600083C717E813D527008D8B3E958D4733050E
:10337000F502854539051375F50F97070020238061
:10338000A7E099473305F5021305052497E0FF1FD1
:10339000E780A0F7170700202328A7E659CD994713
:1033A000170600200346A6DD3306F6028145130604
:1033B000062497D0FF1FE780804A97070020938755
:1033C000A7E49C439387072417070020232CF7DCEE
:1033D000170700200347A7DA0A07BA971707002044
:1033E0002322F7DEEFF0EFD8A92997070020938773
:1033F00067DB94439707002083C757D813972700AC
:10340000369717F6FFFF1306E65910C31387170008
:103410001377F70F0A07369717F6FFFF1306E660D4
:1034200010C313873700890793F7F70F8A079705AB
:103430000020A385E5D4B69790C3B24041018280B5
:103440009707002083C797D317070020034727D388
:1034500063F3E702170700201307C7D418439386C6
:10346000170017060020A30BD6D093962700369797
:1034700008C33E8582809307F00FE5BF1C4163823D
:10348000071441777D8FB70600208947631CD71248
:103490000357450063080712411122C419462A84C4
:1034A0009305F00F610506C697D0FF1FE780804D9A
:1034B00005478D476302E5101C4491C7585899474A
:1034C00065CF185C75CB1306C00381451705002036
:1034D0001305C5CF97D0FF1FE78060381306C003E0
:1034E000A28517050020130565CE97D0FF1FE78042
:1034F000603017070020035727CE970700209387D7
:10350000E7CC19E713070010970600202396E6CCB6
:1035100017070020034767CC11E7054797060020EF
:10352000238DE6CA17070020035747CB11E76D47E5
:10353000970600202394E6CA170700200347F7C91F
:1035400011E7154797060020A389E6C81707002052
:103550000347E7C811E70547970600202381E6C81F
:10356000170700200347B7C719E703C7F7009706F7
:103570000020A386E6C617070020034767C611E7A9
:10358000554797060020238DE6C40347640119E7D9
:103590001307C003970600202385E6C49C5791C7F4
:1035A000829797070020239FA7BCFD57170700208D
:1035B000A308F7ECB9338147B24022443E8541016C
:1035C000828089473E85828001114EC6970900207E
:1035D000938949C483A7090006CE22CC26CA4AC8CB
:1035E00052C4829713090064B335250303DA8900B6
:1035F0008146528633052503EF90811C97070020F2
:103600009387C7B7804FAA84014563069402338528
:103610008440636E940003A5490052868146B33509
:10362000A9023305A902EF90A119018D26959707EC
:10363000002023A197B6F2406244D2444249B249E5
:10364000224A056182809707002083D747BD5147F2
:103650001D45637CF702794719456378F702130724
:10366000200315456373F7021307B0041145637E09
:10367000F700130740060D456379F700130760094B
:1036800009456374F70013B5B70F8280011122CC8E
:1036900006CE2A842EC6EFF00FC1B245F240818DCE
:1036A00033A5A502229562441375F50F056182804A
:1036B000011122CC06CE2A842EC6EFF0CFBEB24531
:1036C000F240818D33A5A5022295624442054181D5
:1036D00005618280011122CC06CE2A842EC6EFF02D
:1036E0008FBCB245F240818D33B5A502229562446C
:1036F0000561828097070020938747AD985739CBA3
:10370000411122C426C206C6BE84029717070020B4
:10371000035747A72A8415CBBA876373A700AA87E4
:10372000C207C183BA866373E400A286C206C1825F
:10373000958F5147635BF700DC5491C38297EFE0AC
:10374000C01C97070020239F87A2B24022449244C6
:103750004101828082809707002083C767AC99C7A8
:10376000054582800545F24005618280970700206B
:103770009387C7A5DC57011106CEAA8581C72AC643
:103780008297B245ADCD9C41F1DFDC41E1DF83D7CB
:103790008500E9DB83D7A500F1D741461705002056
:1037A000130545A797D0FF1FE780C00497070020A7
:1037B000938747A69C43170700202323F7A097076A
:1037C000002083C717A28DE79307805717050020B5
:1037D0000355C5A43305F50237460F00130606242A
:1037E00081468145EF80D17D97070020A38BA79E5E
:1037F00017050000130585DDC1340145ADB79707F6
:10380000002023AB079897D7FF1F9387875517078B
:1038100000202321F7A07D579707002023AEE79EC5
:10382000B7873200938727A19706002023A8F69E2A
:10383000970700202386079EB7C7004023A4E726EA
:10384000B5B7011122CC17040020130424980844B2
:1038500006CE26CA4AC801E90545F2406244D24470
:103860004249056182805C58E5DB185C75D77000C1
:10387000854582971844B247E300F7FE9305E004BC
:10388000170500200355459597E0FF1FE780E0A747
:10389000170700202324A79061D1170600200356A4
:1038A000A6939305F00F97D0FF1FE78040FB81445C
:1038B000170900201309898C9707002083C7E79117
:1038C0000326090263C1F402328597E0FF1FE780F7
:1038D000A0B201459707002023A2078C970700207C
:1038E00023A0078C9DBF9705002083D5E58EB38765
:1038F00095020844185C898185043E9508C20297A8
:1039000065BF011156C2970A0020938A2A8C83A7AB
:103910008A0022CC4AC84EC606CE26CA52C45AC015
:10392000AA892E8432896386072203A74A03630982
:1039300007141307F01F6367A714970400209384EC
:10394000E48303AA040263170A0A9565938515E0C8
:10395000170500200355458897E0FF1FE780E09A90
:103960009707002023ACA7822A86630B051083A744
:103970004A0303A58A009705002083D5E585898140
:10398000829783A78A0003AA04021707002023292D
:10399000F7808947639CF908C1476313F40E9705C4
:1039A000002083D56583938505FC9147B3C5F50257
:1039B0008A05D29503C725009307A005631EF70A61
:1039C00083D70500639A370B4A852286910597D0E5
:1039D000FF1FE78020E29C50528563934715014505
:1039E000F2406244D2444249B249224A924A024BCE
:1039F00005618280D850E38EE7F89565938525E0D0
:103A000017F5FF1F0355457D97E0FF1FE780E08F07
:103A10002A8A3DC52A8683A74A0303A58A0097F50B
:103A2000FF1F83D5657B89818297A5B78D47639DED
:103A3000F900C1476316F40497F5FF1F83D5C579D4
:103A4000938545FDF199B5B79147639AF9006319DC
:103A5000340397F5FF1F83D52578A115E5B79307A4
:103A60000010639FF900A14763EC870097F5FF1FE3
:103A700083D58576C115F9B79C5052856396470D5D
:103A80002945B9BF1D6A568B6371450B130A05E0C2
:103A90001947334AEA0217F7FF1F0357E77397FAEC
:103AA000FF1F938AAA6D330AEA023E9A83A74A024D
:103AB0006395470183A40A029DE49305E00417F58A
:103AC000FF1F0355657197E0FF1FE7800084AA84FC
:103AD00045D983274B0397F5FF1F83D5E56F2A86CA
:103AE00089815285829791451307A0058981939713
:103AF0002500A69783C627006393E60483D60700B4
:103B0000639C360385058A052286A6954A8597D04B
:103B1000FF1FE78020CE83A70A02E38297EC268569
:103B200097E0FF1FE780408D5DBD21677917E3694E
:103B3000A7F4330A454185B783C5370045BF83A73E
:103B40000A02E38F97F2268597E0FF1FE780C08A7D
:103B500005BF97F7FF1F938767628C5395D19147F5
:103B60009306A0058983139727002E970346270005
:103B7000E318D6F003560700631C360185078A0751
:103B80002286BE954A8597D0FF1FE780A0C681BDDB
:103B900083473700C1BF97F7FF1F93872763984775
:103BA00039C79C5FA9C705476313E504411122C4C7
:103BB00017F4FF1F1304845C105006C60DC648504E
:103BC00097F5FF1F83D5456189818297085097E05B
:103BD000FF1FE780608297F7FF1F23A1075C97F71D
:103BE000FF1F23AF075AB2402244410182808280E6
:103BF000011117F7FF1F1307675D4EC68329870062
:103C000022CC26CA4AC806CE52C456C2AA842E84E2
:103C10003289638B09201C5FBA8A99EB2945F240EF
:103C20006244D2444249B249224A924A05618280A2
:103C30005C5BEDD79307F01F63EAA70E97F9FF1FB0
:103C40009389C95383A70902B1CB03A58A0083A72F
:103C500049026395A70689476393F408C147E31FA8
:103C6000F4FA17F5FF1F035525579147130505FC77
:103C70003345F5029317250003A509022286CA855C
:103C80003E959307A0052301F5002310950011052B
:103C900097D0FF1FE78000B6014551B79305E004B8
:103CA00017F5FF1F0355455397D0FF1FE780E065C9
:103CB00097F7FF1F23A4A74E49F98DB783A74A039F
:103CC00003A6090297F5FF1F83D5055189818297C5
:103CD00083A78A0017F7FF1F2324F74CADBF8D473A
:103CE000639EF400C147E31BF4F217F5FF1F035571
:103CF000A54E130545FD9377C5FFBDBF9147639A58
:103D0000F400E31D94F017F5FF1F0355E54C211552
:103D1000DDB793070010E393F4F0A147E3E087F0E9
:103D200017F5FF1F0355454B4115F1B79D676379A3
:103D3000F506930705E01947B3C7E70217F7FF1F1A
:103D40000357874917FAFF1F130A4A43B387E7024D
:103D5000BE9983270A02A1CF83274A0263993707B6
:103D600003250A0291461308A0059305F00F93D787
:103D70002600139727002A9703462700631F06078C
:103D8000835807000346370063959806B306D6406C
:103D900063CF860485078A072286CA853E95CDBDF6
:103DA00021677917E36CA7E6B307F54041BF930598
:103DB000E00417F5FF1F0355254297D0FF1FE7804A
:103DC000C05497F7FF1F23ABA73C59F581BD83A7CC
:103DD0004A0303260A0297F5FF1F83D5E53F898131
:103DE0004E85829797F7FF1F23AC373B95BF231073
:103DF000B70093160601C1829DBFB385860017F6F2
:103E0000FF1F0356663D9105130606FCE3F8C5E067
:103E100013063400719A1106B2962301070123108C
:103E20009700A301D700BDB797F7FF1F938707350A
:103E30009453BE89A9C203A5090291461308A0059F
:103E40009305F00F93D72600139727002A97034670
:103E50002700631806058358070003463700639858
:103E60009800B306D640E3D786F22310B700931626
:103E70000601C182C1BF8357C70017F5FF1F034565
:103E8000C5359305E0043305F5024205418197D01D
:103E9000FF1FE780804797F7FF1F23A1A73041FD51
:103EA000B5BB17F6FF1F0356263397F5FF1F83C5D3
:103EB000C532B385C502338686001106E3E0C5D658
:103EC00081BF01458280011106CE2EC6EF70007CB5
:103ED00001C9B245F2400355250005616FB0F011EC
:103EE000F240494505618280A388018623880186C6
:103EF00023AC018423AE018423A0018623A2018682
:103F000023AA018423A8018497F7FF1F938787338F
:103F1000930640382391D702F1761307400B93861E
:103F200006B82391E7002392D70211679D46130636
:103F300000059305000A1305007D2392E7002393F3
:103F4000D70241478546130810F82395E7002396CA
:103F5000E7002399E700239AE700239BE700239CCF
:103F6000E7002394E702239007002393B7002394EC
:103F7000B7002397C7002398C700239DA700239E5F
:103F80000700239F0700239007022395D70223965B
:103F90000703239707029308F00723980702239249
:103FA000E7042393E704239FE7042390E706239184
:103FB000E7062392E706239917031307C01C239AE9
:103FC000D702239BD702239C0702239D0702239E2F
:103FD0000702239F0702239007042391D704239409
:103FE0000704239507042396D7042397C70423982F
:103FF000C7042399A704239A0704239B0704239C3F
:104000000704239DC704239EC7042393A706239474
:10401000070623950706239607062397B7062398D6
:10402000B70623990706239AE7065147239DE7061B
:104030007D57239B0706239C0706239ED706239FB5
:104040000706239007092391E7088280011126CAF9
:10405000AA84214522CC06CE2E8432C636C43AC26A
:10406000EFE08FF91DC9A24612473246930700FDC3
:104070002300F5009947A30095002301F5002303D1
:10408000D500A303E5002312C500AA85228562445A
:10409000F240D24405616FE01F85F2406244D24491
:1040A0000561828023ACA184828023AEA1848280BA
:1040B00023A0A186828023A2A1868280011122CC26
:1040C0004AC806CE26CA2A890144B3048900636817
:1040D000B400F2406244D2444249056182802EC657
:1040E000EFE07F9C93170501C183A183B245238034
:1040F000F4009307140093F7F70F850463F9B700F2
:10410000CA9709042380A7001374F40F7DBF3E846F
:104110007DBFC16717F5FF1F03552511FD17630408
:10412000F502411117F6FF1F034686259385818608
:1041300006C6EF70A033B240FD5717F7FF1F2316D6
:10414000F70E41018280828009C925151375F50F8C
:104150001335850E1345150082800145828023901A
:104160000500C9C6797122D426D24ECE52CC5AC887
:1041700006D64AD056CA5EC63684328AAE892A8BA3
:10418000814463F34407B307940083C7070013898E
:1041900014004209939A070193DA0A01135909019D
:1041A00063840A04CA976341FA04B307240183CBEA
:1041B00007005E85513F0DC99387FAFF2390F900F0
:1041C00063906B03130519002295B2502254925448
:1041D0000259F249624AD24A424BB24B456182804F
:1041E000D694C204C18071BF0145C5B70145828024
:1041F000411126C2AE8422C497F7FF1F23AEC70227
:1042000097F7FF1F23A8B70297F7FF1F23A2A70264
:104210002A8441469305F00F26854AC006C6054903
:1042200097C0FF1FE78000766310250597F7FF1FF3
:10423000938747FF884BC145513541469305F00FA1
:10424000228597C0FF1FE780E073854463189502BD
:10425000224497F7FF1F9387E7FCB240924402493C
:10426000C847C145410199BD41468145268597C052
:10427000FF1FE7802071E31225FD4DBF41468145B8
:10428000228597C0FF1FE780E06FE30395FCB240F3
:1042900022449244024941018280411122C426C233
:1042A0002E84AA8413060002814517F5FF1F13050B
:1042B00065F706C697C0FF1FE780605A97F7FF1F94
:1042C000A38397F697F7FF1F238E870AEFB0E0547A
:1042D000854719C181474945B240224417F7FF1F5E
:1042E0002302F7F4924441018280814781CD19C9AC
:1042F0008547631BF50083C7550093E707FCA3823E
:10430000F50085473E85828089476317F50083C79E
:10431000550093F7F703E5B70D478547E314E5FE2E
:1043200003C755001377F70313670704A382E5005B
:10433000D1BF81478DC105C103C755009306000C4D
:1043400085471377070C6308D700930600048D4751
:104350006303D70089473E858280411122C4005DF6
:1043600006C626C21DC8AA84085009C597D0FF1FDB
:10437000E7808008485009C597D0FF1FE780C00735
:10438000085409C597D0FF1FE7800007228597D002
:10439000FF1FE780600623AC0402B240224492442F
:1043A0004101828009ED97F7FF1F83C7C7E717F523
:1043B000FF1F1305A5E881CB13858184828017F543
:1043C000FF1F1305A5E7828017F5FF1F0345A5E52D
:1043D000828097F7FF1F9387E7E4C847828097F7AB
:1043E000FF1F938727E4884B828097F7FF1F9387EF
:1043F00067E3DC4B8843828097F7FF1F938787E250
:10440000D84B1C4385071CC317F5FF1F0345B5E1B7
:104410009307F00F6305F50091656FE07F8182805F
:10442000011122CC06CE2E8432C6EF70E0369147C1
:10443000B245631FF500938741869C438DC303A358
:104440000700630E030022856244F2400561028387
:104450009387C1859C4381C703A34700DDB7F24022
:104460006244054505618280011122CC2A840355EE
:10447000450006CE26CA4AC84EC6EF70001035C5A4
:104480002A89834405008349C500C13D4A85EF70F0
:10449000C06B03554400EF70602B83C70187B1CB1D
:1044A0006399970483C511872685EFF0DFA119E191
:1044B0002388018603554400EF70002E9147631F47
:1044C000F5000357440097F7FF1F83D707D66317FC
:1044D000F700FD5717F7FF1F2319F7D4F240624486
:1044E000D2444249B2490561828081499304F00F68
:1044F0006DB79307F00FE38FF4FA83466400035619
:104500004400034524004E87A685893665B7797136
:104510005EC6AA8B2E8552CC56CA5AC806D622D45D
:1045200026D24AD04ECEAE8A328B368AEF70E00465
:104530007DC1045D2A89E5C09C50614599C313057E
:1045400040039C5481C751054205418163050A001F
:10455000710542054181DC5081C75D0542054181FD
:10456000EFE08FA92A8445C96146814597C0FF1FA6
:10457000E780E02E97F9FF1F83C9C9CF6394090034
:1045800083490900930700FD2300F400A947A30015
:1045900074012301F400230364018C50231254019D
:1045A0001305840191C908C47146930A440397C056
:1045B000FF1FE780202456858C5491C948C451467A
:1045C000930A450197C0FF1FE780C0225685630C00
:1045D0000A0008C87146D285930AC50197C0FF1F1B
:1045E000E78040215685CC5099C548C85D4697C0A4
:1045F000FF1FE7802020A2854E85EFE0CFAE22543A
:10460000B2509254F249624AD24A424BB24B4A8566
:104610000259456199B3B250225492540259F24959
:10462000624AD24A424BB24B4561828001114EC66A
:10463000AA892E854AC806CE22CC26CA2E89EF60CA
:10464000D07321C997F4FF1F83C4C4C299E0834487
:1046500005001945EFE04F9A2A8405CD814519469A
:1046600097C0FF1FE780A01F930700FD2300F40001
:10467000B947A30034012301F40023122401A285C9
:104680006244F2404249B2492685D24405616FE056
:104690008FA5F2406244D2444249B249056182800A
:1046A00039715ECEAA8B2E8526DA4ED652D456D2DA
:1046B0005AD006DE22DC4AD8AE84328BB68A3A8AD9
:1046C000BE8942C6EF60706B21CD2A894145EFE07B
:1046D000AF922A8431C54146814597C0FF1FE780CC
:1046E000001817F5FF1F0345E5B819E10345090058
:1046F000930700FD2300F400BD472301F400B247F7
:10470000A30074012312940023046401A304540140
:1047100023054401A30534015CC4A285EFE0AF9CEE
:10472000F2506254D2544259B259225A925A025B00
:10473000F24B21618280797126D2AA8439454AD010
:104740004ECE06D622D42EC6B2893689EFE0CF8A65
:1047500021C1B2459307000D2310F500B1472A840B
:104760002312B5002301F500CE851905194697C01F
:10477000FF1FE780200823062401A2852254B2509F
:104780000259F24913F5F40F925445616FE0AF9569
:10479000B250225492540259F2494561828017F76F
:1047A000FF1F034757A89307F00F630DF70641114A
:1047B00026C2AA84394522C406C64AC0EFE0CF8388
:1047C0002A8439C9930700FD2300F500A300950052
:1047D0002301050097F5FF1F938545A60D05194692
:1047E00097C0FF1FE780000117F9FF1F130989A376
:1047F00083578900A28517F5FF1F0345D5A223150E
:10480000F400834719002306F4002244B240924486
:10481000024941016FE02F8DB24022449244024987
:1048200041018280828001115AC02A8B314526CAFB
:104830004EC652C456C206CE22CC4AC8AE84B28AF4
:10484000368ABA89EFD05FFB35CD2A842685EF60A2
:10485000D05211C50347C500A1476314F70417F9E7
:10486000FF1F0349599C930700FD2300F4009D4757
:10487000A30064012301F4002312940023135401C4
:104880002314440123153401A2856244F240D2442A
:10489000B249224A924A024B4A85424905616FE079
:1048A0008F8417F9FF1F0349F9ADE31E0BFA9387B5
:1048B000C18F9C439C47C5DBCE865286D685268514
:1048C000829755B7F2406244D2444249B249224AE3
:1048D000924A024B05618280011122CC2A84214533
:1048E00006CE2EC6EFD05FF121C1B245930700FD81
:1048F0002300F500C5472301F50083C73500A30158
:10490000F50083D745002312F50083C76500230314
:10491000F50083C77500AA85A303F50022856244CC
:10492000F24005616FD03FFCF24062440561828035
:10493000397162CC2A8C594526DA4AD84ED652D4DF
:1049400056D25AD05ECE06DE22DCAE8432C636C4E3
:10495000BA8B3E8BC28A468A8359010403494104BB
:10496000EFD09FE925C93246930700FDA2462300F8
:10497000F5009547A301C500A30085012301F500BB
:104980002A8419461105A9C2B68597C0FF1FE78082
:1049900060E623066401230A24012315740123170A
:1049A00054012318440123193401A2856254F250A2
:1049B0004259B259225A925A025BF24B624C2685F6
:1049C000D25421616FD03FF2814597C0FF1FE7802D
:1049D00000E9C1B7F2506254D2544259B259225A36
:1049E000925A025BF24B624C2161828097F7FF1F63
:1049F00083C767838DCB4111AA85194613858184AE
:104A000006C697C0FF1FE780E0DE9385818417F517
:104A1000FF1F03454581EFF05F8DB2401385818410
:104A200041016FA010600145828017E7FF1F034717
:104A3000977F9307F00F6305F708411126C2AA84F8
:104A4000294522C406C6EFD03FDB2A8429C193073B
:104A500000FD2300F500A1472301F500A300950008
:104A600097E7FF1F9387077C83C72700938581847F
:104A70001105A30FF5FE194697C0FF1FE78080D7E9
:104A8000A28517E5FF1F0345157AEFD0DFE517E78D
:104A9000FF1F034747798D47631FF7009387018600
:104AA0009C4391CB03A38700630703002244B240D9
:104AB000924441010283B2402244924441018280E7
:104AC00017E7FF1F034727768D47631AF700938781
:104AD00001869C4389C703A38700E31D03FC8280F2
:104AE000797122D406D626D24AD04ECE52CC094471
:104AF00055CD2A89035505002E8A5144EF60F027D1
:104B0000AA844DC597F7FF1F83C7C787FD1793F783
:104B1000F70F05474944637BF7080347C500A147E2
:104B20006314F70063140A089C5C4544C1E3916573
:104B3000938545711305C00297C0FF1FE780E07C95
:104B400088DCAA894D443DC11306C002814597C047
:104B5000FF1FE780C0D08357090093864900368540
:104B60002391F90071469305490036C697C0FF1F8F
:104B7000E78040C889472380F90003C5C400B246D6
:104B800003560900611597E5FF1F83C5657F13353F
:104B90001500EF70D0412A8463060A00D28526856D
:104BA000EF70802A01C42685EFF02FFB2285B250DA
:104BB000225492540259F249624A4561828097E731
:104BC000FF1F83C7277CFD1793F7F70F0547637A0D
:104BD000F708894741CA011122CC26CA4AC84EC6E5
:104BE00052C406CEAA89368AB2842E89EF60F018A4
:104BF0002A84D14739C9485509C597C0FF1FE780A6
:104C0000A07FF145268597C0FF1FE780E0CA48D402
:104C1000CD4705CD8346C40021478147639FE60009
:104C2000630D0A000347A5010356050193062501FC
:104C3000AA854E85EF700029AA8703474400630FB9
:104C40000900136767002302E400F2406244D24483
:104C50004249B249224A3E85056182801367470076
:104C6000DDB7C9473E8582809307000463EBA70048
:104C700097E7FF1F9387075D06053E9503550500DF
:104C8000828041657D158280011122CC2A842E8587
:104C900026CA06CEAE84EF60500E1DCDB7470F007A
:104CA0009387F723094563E4870281450A854146D6
:104CB00097C0FF1FE780A0BAA685231081000A8550
:104CC000418023018100A3010100EF70101AF2401E
:104CD0006244D244056182804945D5BF97E7FF1FF2
:104CE0002381A76A82806F70B026797152CC2A8A9C
:104CF000328522D426D24AD04ECE56CA5AC85EC673
:104D000006D662C4AE8BB28A368BBA843E89C2891B
:104D10004684EF60900615C92A8C63140A02137743
:104D20004B008347450015CF93E727012302FC0082
:104D30008DEC631C0902639A090205E8ED9B2302CE
:104D4000FC00832B8C0363910B08B25022549254C5
:104D50000259F249624AD24A424BB24B224C456157
:104D60008280F59B93E70701D1B793E747002302C1
:104D7000FC0001CC1C484146A2852324FC021305FB
:104D80008C0197C0FF1FE780E0A663930B02D5D884
:104D90000325CC0209C597C0FF1FE780E065F145F8
:104DA000268597C0FF1FE78020B12326AC0251BFA4
:104DB000E30909F80325CC0209C597C0FF1FE78066
:104DC000A063F1454A85F1BF9DC483A70B0299EB0F
:104DD000916593853571714597C0FF1FE780E0525B
:104DE00023A0AB0203A50B0219C57146A68597C087
:104DF000FF1FE78020A06388090283A74B0299EB7D
:104E00009165938525715D4597C0FF1FE780E04F51
:104E100023A2AB0203A54B0219C55D46CE8597C000
:104E2000FF1FE780209D1DC483A78B0299EB91652E
:104E300093851571514597C0FF1FE780004D23A44E
:104E4000AB0203A58B0219C55146A28597C0FF1F6F
:104E5000E780409A2254B2509254F249B24B224C0D
:104E6000CA865A860259424BD6855285D24A624A30
:104E700045616FF0CFE9011126CA52C406CE22CC9B
:104E80004AC84EC62A8AAE84EF60206F25C5AA891B
:104E90003945EFD07F962A8431CD17E9FF1F0349AA
:104EA000693D6314090003C909009307000D23102D
:104EB000F400AD472301F400938569001305340025
:104EC000194697C0FF1FE780E09293F71400858092
:104ED00085882306F400A306940023154401A285C7
:104EE0006244F240D244B249224A4A8542490561AD
:104EF0006FD07F9FF2406244D2444249B249224A75
:104F00000561828001114EC652C456C206CE22CC23
:104F100026CA4AC8AA8A2E8AB289EF6000662DCDB9
:104F20002A891305C002EFD03F8D2A8435C597E446
:104F3000FF1F83C4243499E0834409009307000DC4
:104F40002310F400E9472301F400930569001305D9
:104F50003400194697C0FF1FE780C089D28523150A
:104F600054011305C400414697C0FF1FE7808088A5
:104F7000CE851305C401414697C0FF1FE780808797
:104F8000A2856244F2404249B249224A924A2685A9
:104F9000D24405616FD03F95F2406244D244424909
:104FA000B249224A924A05618280938701858843EB
:104FB00001CD411106C697C0FF1FE780E043B24014
:104FC00023A80184410182808280011106CE22CC77
:104FD00026CA4AC82EC6EF60405A39CDB24517E9F5
:104FE000FF1F03492929AA840CD56314090003492A
:104FF00005004145EFD05F802A841DCD9307000D49
:105000002310F500A5472301F50083C754009385BD
:1050100064001105A30FF5FE194697B0FF1FE78046
:10502000607D9C54A285F2405CC46244D2444A85AF
:10503000424905616FD03F8BF2406244D2444249FD
:1050400005618280797122D406D62A842EC6EF604B
:10505000C05201CDB2452285230EB1006C08EF602D
:10506000305BB2502254456182805145DDBF6F6094
:105070006067C1671387E7FF6394E5029387C18583
:105080009C4391EB494582804945B2402244924479
:1050900002494101828003A30700E30503FE028366
:1050A000411122C426C24AC006C6FD172A892E8491
:1050B000B2846395F5029387C1859C4391CB9C4351
:1050C00081CB829711E523882187A388918675BFBC
:1050D000A6854A85EFE03FDF4DF9F5B72E85EF60F5
:1050E000C0495DD1834705000D45E39027FB22852C
:1050F0002244B2400249A685924441016FA0E06F6C
:105100009307000463E2A7064111C16722C406C6E3
:1051100026C2FD172A8409456382F502C547AE847D
:105120006313F4022E85EFA0407417E5FF1F1305EB
:10513000651106042A94231094000145B2402244CC
:105140009244410182809307A0036316F4002E85E8
:10515000EFA0206BD9BF9307B003E318F4FC13F55D
:10516000F50FEFA0406AD1B709458280011106CE44
:105170002AC6EFE07FD7EF204021EF108060EF20BC
:10518000A10C324597E7FF1F9387C709130700F06B
:105190002391E700238207007D5797E7FF1F93873E
:1051A000271E2381E7002380A700F2409545056173
:1051B0006F40904F597193970501CAD086D6A2D4FB
:1051C000A6D2CECED2CCD6CADAC8DEC6E2C4E6C2F9
:1051D000EAC06EDEC1872E8963D1075A17E5FF1F2B
:1051E0000345051AEFD0CFE78964416A856A797B68
:1051F0002A84938BD4007D1AA50A130CABFF1DE003
:1052000021653345A900B650265496540659F649EF
:10521000664AD64A464BB64B264C964C064DF25D36
:1052200065618280834704001307200A639DE700BD
:105230000355240097E9FF1F83C9F9FE2286D28512
:10524000EFF00F9E59A21307100997E9FF1F83C9BA
:1052500049136398E7188347140015476390E702E2
:105260002285EFF06FA02285EFD02FD417E5FF1F26
:1052700003450511EFD0CFDE2A8451B73947639B30
:10528000E71803554400631B55050C4483CC050007
:10529000639D0C00850591C9194617E5FF1F13058D
:1052A000E5F997B0FF1FE780E05417E7FF1F0347BA
:1052B00067F785476317F712638A0C0097E7FF1FAC
:1052C000238207F66685EFF08FCD71BF894717E718
:1052D000FF1F2309F7F4EFA0805471B793872400D0
:1052E000631AF506832C8400638D0C0E83C70C00B3
:1052F0008DE383C72C0003C71C00A207D98F17E7D3
:10530000FF1F2315F7F283C73C0017E7FF1FA30B0E
:10531000F7F017E7FF1F0347E7F089476313F70C20
:1053200083C70C0081CB97E7FF1F238D07EE03C5D2
:105330000C0051BF8D4797E5FF1F83C5B5EE17E5FC
:10534000FF1F0355A5EE17E7FF1F230DF7ECEF40F6
:10535000B038F1BF938754006318F5001C4403C5AF
:105360000700EFF08FEC01B7B3078501C207C183D7
:1053700011476372F7049307ABFCAA9713970701D1
:105380004183F14763F1E7029387B4006312F504A8
:10539000938781859C43E38807EC9C43A285E38443
:1053A00007EC82971DA0B70700189387F770B3D753
:1053B000E700858BB9CB938701869C43E38507EA99
:1053C0009C43E38207EA22858297E31E05E811A841
:1053D0009387C4006310F5021C4483C70700E3846D
:1053E00007E89307F00FE380F9E8A2854E85EFD038
:1053F0008FCFADBD9387E4006319F5009387C18516
:105400009C43E38207E6DC4351BF93871404E30126
:10541000F5F8C1BF3D476397E70403554400E30F28
:1054200075FD93879401E30BF5FC93873401E31A30
:10543000F5FA97E7FF1F83D747DF639E47019387FE
:10544000C1859C43E38107E2DC43E38E07E0A2854C
:1054500013853401B9B7938741869C43E38507E000
:105460009C43E5B71307E003E39DE7F68347240079
:1054700005476397E70E83476400938D0185F1E349
:1054800083A70D00D5CB83CC0700A1490345740049
:10549000130D8400EA85EFE0DFE983474401A303AD
:1054A000A400835804010358E400035744002A86EB
:1054B000034534003EC283572401EA86E6853EC098
:1054C000CE87EFF0EFC68347340095E7DD4783587A
:1054D00004010358E40083467400835544003EC22F
:1054E000835724016A8705463EC06685CE87EF60F4
:1054F000403DA301A40083A70D0081C71145EFF033
:10550000DFAA03C50187E30005D683C51187EFE055
:105510009F9BE30A05D48346340093071003638AF4
:10552000F600035644004E8783C501873685EFE0B9
:10553000FFB12388018605BB97ECFF1F83CCBCCE4F
:10554000A9B7938701869C4397ECFF1F83CCBCCD02
:1055500091498DDFDC439DDB8145014582973DB755
:1055600029476391E70C83476400138D0185C1E7E8
:1055700083270D00A5CF83CC0700A1490345740004
:105580009306840093772500D1C713761500930DF9
:105590004401834704028358C4010358A4010357FC
:1055A0004400034534003EC28357E401E6853EC013
:1055B000CE87EFF0EFB78347340095E7DD47835898
:1055C000C4010358A40183467400835544003EC2BD
:1055D0008357E4016E8705463EC06685CE87EF603F
:1055E000402EA301A40083270D0001BF97ECFF1FED
:1055F00083CC7CC359B7938701869C4397ECFF1FEC
:1056000083CC7CC29149BDDBDC43ADDB81450145E8
:105610008297ADB7B68536CEEFE0BFD1F2462A8687
:10562000B68D85BF0947639DE700938781859C43BD
:10563000E38B07C2DC43E38807C22285829725B14A
:105640002D476399E700938781859C43E38D07C0CD
:105650009C47D5B70D476397E70022868D450355D4
:105660004400F9BE19476395E706930561021305E7
:105670001031EF10D1452C1013052031EF103145BA
:1056800003566400835781020355440063E8C70052
:10569000835684000357610263F7E6009305000216
:1056A000EFA0A01BC9B66374E6002313E40063F403
:1056B000D7002314F4000357C4008356A4000356F4
:1056C00084008355640001488147EFA0C01861BE83
:1056D0001D47E388E7D031476395E7002286B1454F
:1056E000BDBF35476399E700938781859C43E38C71
:1056F00007B6DC4789B739476396E7002285EF0094
:10570000D00395B63D476399E700938781859C4315
:10571000E38B07B49C4B05B741476396E7002285AE
:10572000EF00900C89B645476396E7000145EF000E
:10573000701B15BE4947639EE700938701869C4313
:10574000E38107CADC43E38E07C88145054582979C
:1057500049B94D47639DE700938701869C43E382E7
:1057600007C8DC43E38F07C6A2850945CDB761476B
:10577000E399E7C62286E145DDB593F7150081CFB1
:10578000938781859C4389C7DC4399C301458297F0
:10579000134519008DBC93F7250089CF93870186A7
:1057A0009C4391C7DC4381C78145054582971345DA
:1057B000290091BC93F745000145E38607A4938730
:1057C00041859C4399CF854717E7FF1F230EF7A418
:1057D000938701869C4391C7DC4381C7814505457A
:1057E000829797E7FF1F9387E7A3C8472C10EF60C6
:1057F00030542810EFF08F9F97E7FF1F83D7A7A69D
:1058000081CF130600643386C702914517E5FF1F59
:10581000034505B7EFD0AFD813454900EDB20111EC
:1058200022CC2A84554506CE26CAEFF0EFC3AA84BF
:1058300013054002EFF04FC32AC613055002EFF0E4
:10584000AFC2AA86228562443246F240B335900048
:10585000D24405616FA04006797122D406D68D47E7
:105860002E84631FF50003D7A50083D6850003D6D9
:1058700065000345340083D54500EFE0DFFA09A851
:1058800089671387D7006310E50403C5250019E570
:105890008547B25022543E854561828093870185B9
:1058A0009443FDD603C6360083C50600814802C274
:1058B00002C00148814701479106EFF06F87054517
:1058C000EFF0AFEEF1B71387E700E303E5FC1387D2
:1058D0003701631AE50003C525005DD901478146FC
:1058E0000146814559BFE507E304F5FAB14763195D
:1058F000F50017E5FF1F03451593EFE0FFFD49BFD6
:1059000041677D178147E316E5F803C75500C9478E
:10591000E310F7F883D6E50003D6C50003558400ED
:1059200083D5A500EF90507A41C95D45EFF0CFB324
:105930003335A000231CA1008345440003552400F7
:105940003008EF50103483578101B9F36C08130508
:105950001031EF10D1179305E10113052031EF103D
:1059600011178357C101035784006374F700231490
:10597000F4008357E1010357A40063F4E700231503
:10598000F400835784000357A4006374F7002315C1
:10599000F40003552400EFA0407E0357E400835633
:1059A000C4000356A4008355840003552400014815
:1059B0008147EF905068E9BD8547231CF100ADBFDA
:1059C00017E7FF1F0347379C9307F00F6309F7089A
:1059D00059C5411122C426C206C6AA840345A500A2
:1059E0004105EFC07FE12A8435C59307000D2310E0
:1059F000F500D9472301F50083D744002312F500B1
:105A000083C764002303F50083C77400A303F50074
:105A100083C784002304F50083C79400A304F50022
:105A200003C6A4002305C5001DC2CC44410548C4DB
:105A300097B0FF1FE78000DCA2852244B240924469
:105A400017E5FF1F0345359441016FC0DFE92326A9
:105A50000500DDB7B2402244924441018280828039
:105A6000C1671387E7FF639DE500938701859C432A
:105A700095C383C707000D47639CA7006F90F05A3A
:105A8000FD1749476396F500938701859C43FDF711
:105A90003A8582804947EDBF797122D406D626D255
:105AA0004AD04ECE52CC56CA5AC803470500854745
:105AB0002A84630AF704034685009306950093053C
:105AC000E1000545EFE0AFE9814719C183470500D3
:105AD0008346040011476380E60413874187184317
